:100000000C9456010C947E010C947E010C947E019C
:100010000C947E010C947E010C947E010C94F904E6
:100020000C947E010C947E010C947E010C947E0154
:100030000C947E010C947E010C947E010C947E0144
:100040000C947C040C947E010C94E0030C94BA0391
:100050000C947E010C947E010C947E010C947E0124
:100060000C947E010C947E018109B50985098509EE
:100070008509850985098509850985098509850910
:10008000850985098509850985098509B909B90998
:10009000B909B909B909B909B909B909B909B90950
:1000A000B909B909B909B909B909B909B909B90940
:1000B000B909B90950415F4D41580050415F484965
:1000C00047480050415F4C4F570050415F4D494EEB
:1000D00000313620626974730038206269747300DD
:1000E00044697361626C6564006E524632344C3010
:1000F000312B006E524632344C3031003235304BA9
:1001000042505300324D42505300314D4250530043
:100110000000000023002600290000000008000263
:100120000100000304070000000000000000535419
:10013000415455530909203D20307825303278202C
:1001400052585F44523D25782054585F44533D2512
:1001500078204D41585F52543D25782052585F50C9
:100160005F4E4F3D25782054585F46554C4C3D25F9
:10017000780D0A00504120506F77657209203D20AC
:1001800025530D0A00CA00C300BB00B4004352430C
:10019000204C656E67746809203D2025530D0A00C8
:1001A000E000D900D1004D6F64656C0909203D2045
:1001B00025530D0A00F300E9004461746120526187
:1001C000746509203D2025530D0A000A010401FC35
:1001D0000044594E50442F46454154555245004322
:1001E0004F4E464947090052465F5345545550000B
:1001F00052465F43480900454E5F525841444452BD
:1002000000454E5F4141090052585F50575F5030E2
:100210002D360054585F41444452090052585F4102
:100220004444525F50322D350052585F414444528D
:100230005F50302D31001112131415160A0B0C0DDE
:100240000E0F0D0A0025303278002030780025533B
:1002500009203D000D0A0020307825303278002535
:100260005309203D000001020304050000000025A1
:100270000028002B0000000000240027002A0004B2
:10028000040404040404040202020202020303033D
:100290000303030102040810204080010204081037
:1002A0002001020408102000CE0ECA0E11241FBE29
:1002B000CFEFD8E0DEBFCDBF11E0A0E0B1E0E0E8D5
:1002C000FBE202C005900D92A23CB107D9F725E0F0
:1002D000A2ECB1E001C01D92AE30B207E1F711E02F
:1002E000C5E5D1E004C02197FE010E94C30FC435CB
:1002F000D107C9F70E947C0A0C94B3150C94000036
:10030000CF92DF92EF92FF920F931F93CF93DF93E1
:100310006C017A018B01C0E0D0E0CE15DF0589F0D9
:10032000D8016D918D01D601ED91FC910190F08184
:10033000E02DC6010995892B11F47E0102C021969A
:10034000ECCFC701DF91CF911F910F91FF90EF90FC
:10035000DF90CF900895FC01918D828D981761F008
:10036000828DDF01A80FB11D5D968C91928D9F5FEC
:100370009F73928F90E008958FEF9FEF0895FC0197
:10038000918D828D981731F0828DE80FF11D858D4A
:1003900090E008958FEF9FEF0895FC01918D228DDD
:1003A000892F90E0805C9F4F821B91098F73992762
:1003B00008958DE294E00E94CD0121E0892B09F49B
:1003C00020E0822F0895FC01848DDF01A80FB11D6C
:1003D000A35ABF4F2C91848D90E001968F7399277B
:1003E000848FA689B7892C93A089B1898C91806468
:1003F0008C93938D848D981306C00288F389E02D29
:1004000080818F7D80830895EF92FF920F931F93D9
:10041000CF93DF93EC0181E0888F9B8D8C8D9813B7
:1004200005C0E889F989808185FD24C0F62E0B8DF1
:1004300010E00F5F1F4F0F731127E02E8C8DE81215
:100440000CC00FB607FCFACFE889F989808185FFD7
:10045000F5CFCE010E94E301F1CF8B8DFE01E80FB5
:10046000F11DE35AFF4FF0820B8FEA89FB898081EF
:10047000806207C0EE89FF896083E889F9898081FD
:100480008064808381E090E0DF91CF911F910F9194
:10049000FF90EF900895CF93DF93EC01888D882330
:1004A000C9F0EA89FB89808185FD05C0A889B989E1
:1004B0008C9186FD0FC00FB607FCF5CF808185FFBC
:1004C000F2CFA889B9898C9185FFEDCFCE010E942A
:1004D000E301E7CFDF91CF91089580E090E0892B91
:1004E00029F00E94D90181110C94000008958330F5
:1004F00081F028F4813099F08230A1F0089587309E
:10050000A9F08830B9F08430D1F4809180008F7DDB
:1005100003C0809180008F7780938000089584B518
:100520008F7702C084B58F7D84BD08958091B0001F
:100530008F7703C08091B0008F7D8093B0000895C5
:100540003FB7F8948091270490912804A091290442
:10055000B0912A0426B5A89B05C02F3F19F001963B
:10056000A11DB11D3FBFBA2FA92F982F8827820F39
:10057000911DA11DB11DBC01CD0142E0660F771F89
:10058000881F991F4A95D1F70895CF93C82F682FD8
:100590008DE294E00E9404028C2FCC0F990BCF9136
:1005A00008950F931F93CF938C0186E00E949D07BF
:1005B000C82FC77D0230110531F4C0628BE990E08D
:1005C000A0E0B0E00DC00130110529F085E590E014
:1005D000A0E0B0E005C0C86081E490E0A0E0B0E039
:1005E0008093FF0490930005A0930105B09302054A
:1005F0006C2F86E00E94240786E00E949D0791E010
:100600008C1390E0892FCF911F910F9108950E9434
:10061000C910FC0180819181009711F00C940111A7
:1006200060E070E0CB010895FC0124813581621700
:10063000730720F480819181009729F410922B0494
:100640008BE294E00895860F971F08950F931F93F0
:10065000CF93DF93EC0188819981009729F02A815B
:100660003B812617370788F48B016F5F7F4F0E940D
:10067000FF0F009761F0998388831B830A832C8185
:100680003D81232B11F4FC01108281E001C080E048
:10069000DF91CF911F910F910895CF93DF93EC01DC
:1006A00088819981009711F00E9431141982188273
:1006B0001D821C821B821A82DF91CF910895EF92D6
:1006C000FF920F931F93CF93DF93EC017B018A017D
:1006D000BA010E942603811104C0CE010E944D037D
:1006E00007C01D830C83B701888199810E94D710B0
:1006F000CE01DF91CF911F910F91FF90EF90089560
:10070000FC01808191810C943114CF93DF9300D050
:10071000CDB7DEB7FC0111821082138212821582DE
:10072000148269831A82BE016F5F7F4FFB010190C3
:100730000020E9F73197AF01461B570B0E945F037A
:100740000F900F90DF91CF910895FC0111821082DC
:1007500013821282158214826115710551F0FB011A
:1007600001900020E9F73197AF01461B570B0C941D
:100770005F0308951F920F920FB60F9211242F93CB
:100780003F934F935F936F937F938F939F93AF9319
:10079000BF93EF93FF938DE294E00E94E301FF91FA
:1007A000EF91BF91AF919F918F917F916F915F91E9
:1007B0004F913F912F910F900FBE0F901F90189562
:1007C0001F920F920FB60F9211242F938F939F9326
:1007D000EF93FF93E0913D04F0913E048081E0911E
:1007E0004304F091440482FD12C09081809146043C
:1007F0008F5F8F7320914704821751F0E091460478
:10080000F0E0E35DFB4F958F8093460401C080814B
:10081000FF91EF919F918F912F910F900FBE0F90AD
:100820001F9018951F93CF93DF93282F30E0F90185
:10083000E65EFE4F8491F901ED56FD4FD491F9012A
:10084000E158FD4FC491CC23C9F0162F81110E94AD
:100850007702EC2FF0E0EE0FFF1FE559FD4FA59159
:10086000B4918FB7F894111105C09C91ED2FE095CC
:10087000E92302C0EC91ED2BEC938FBFDF91CF9178
:100880001F9108958F929F92AF92BF92CF92DF9265
:10089000EF92FF926B017C010E94A0024B015C0170
:1008A000C114D104E104F104F1F00E94A002DC01C2
:1008B000CB0188199909AA09BB09883E9340A10573
:1008C000B10570F321E0C21AD108E108F10888EE01
:1008D000880E83E0981EA11CB11CC114D104E10450
:1008E000F10419F7DDCFFF90EF90DF90CF90BF902C
:1008F000AF909F908F9008951F920F920FB60F9216
:1009000011242F933F938F939F93AF93BF93809125
:10091000230490912404A0912504B09126043091E1
:10092000220423E0230F2D3720F40196A11DB11DD1
:1009300005C026E8230F0296A11DB11D20932204B5
:100940008093230490932404A0932504B093260459
:100950008091270490912804A0912904B0912A0441
:100960000196A11DB11D8093270490932804A093A4
:100970002904B0932A04BF91AF919F918F913F9129
:100980002F910F900FBE0F901F9018958F929F92EE
:10099000AF92BF92CF92DF92EF92FF926B017C01F8
:1009A0000E94A0024B015C0184E0C81AD108E10852
:1009B000F108C80CD91CEA1CFB1CC814D904EA04B1
:1009C000FB0438F40E94A00286169706A806B90612
:1009D000C8F30E94A0026C157D058E059F05C8F323
:1009E000FF90EF90DF90CF90BF90AF909F908F904F
:1009F00008951F920F920FB60F9211242F933F93D9
:100A00004F935F936F937F938F939F93AF93BF9316
:100A1000CF93DF93EF93FF932091C30130E0F9016F
:100A2000E65EFE4F8491F901ED56FD4FD491F90138
:100A3000E158FD4FC491CC23A1F081110E947702AF
:100A4000EC2FF0E0EE0FFF1FE05FFE4FA591B49199
:100A5000EC91ED2331E020E009F430E0832F922F78
:100A600002C080E090E02091C7013091C8012F5F63
:100A70003F4F3093C8012093C7012091C6012091B8
:100A8000C2012430D9F128F4223069F02330D9F0A2
:100A900060C0253009F453C0263009F05AC021E067
:100AA0002093210453C0009709F053C02091C7013F
:100AB0003091C8012436310508F443C01092210456
:100AC0001092C6011DC08130910509F042C0E0912D
:100AD000C60121E02E0F2093C601F0E02091C7014E
:100AE0003091C801EE0FFF1FEE53FE4F3087278372
:100AF0001092C8011092C70124E029C00097B9F4F0
:100B0000E091C60121E02E0F2093C601F0E0209174
:100B1000C7013091C801EE0FFF1FEE53FE4F308723
:100B200027831092C8011092C70123E010C02091C2
:100B3000C7013091C8012536310558F007C000972C
:100B400041F41092C8011092C70103C025E0209320
:100B5000C2012091C5012223B9F0892B51F4809163
:100B6000C401882321F08091C40161E009C02D9A5D
:100B70000BC08091C401882331F08091C40160E0F2
:100B80000E94120401C02D98FF91EF91DF91CF9147
:100B9000BF91AF919F918F917F916F915F914F9195
:100BA0003F912F910F900FBE0F901F9018958EBD03
:100BB00000000DB407FEFDCF8EB508952F923F9231
:100BC0004F925F926F927F928F929F92AF92BF925D
:100BD000CF92DF92EF92FF920F931F93CF93DF9309
:100BE0001F92CDB7DEB7562E342E6DB67EB69F93CC
:100BF0008F938EE492E09F938F930E948811350C1F
:100C00000F900F900F900F908AE4C82E82E0D82E9C
:100C100095E4A92E92E0B92E531409F44EC08DB676
:100C20009EB69091FE04092F10E02DB73EB7201B11
:100C3000310B0FB6F8943EBF0FBE2DBFEDB7FEB718
:100C400031967F0122242394250C99830E940B075F
:100C5000852D8F710E94D705270199819E0D9415CE
:100C600049F08FEF99830E94D705F20181932F01FC
:100C70009981F5CF0E940807DF92CF920E948811D8
:100C80000E0D1F1D0F900F90015011090E151F051D
:100C900068F0F80180811F928F93BF92AF920E94FB
:100CA00088110F900F900F900F90EECF0FB6F89421
:100CB0009EBE0FBE8DBE522CAFCF82E492E09F93BA
:100CC0008F930E9488110F900F900FB6F8947EBEFC
:100CD0000FBE6DBE0F90DF91CF911F910F91FF90CE
:100CE000EF90DF90CF90BF90AF909F908F907F90CC
:100CF0006F905F904F903F902F90089590E0FC018F
:100D0000ED56FD4F2491FC01E158FD4F849188235D
:100D100099F090E0880F991FFC01EB58FD4FA591C9
:100D2000B491FC01E559FD4F859194918FB7F894EA
:100D3000EC91E22BEC938FBF08950F931F93CF9309
:100D4000DF93EB011092700083E00E947E0660E06A
:100D500083E00E9412049E01DD0F440B550B60E4FA
:100D60007FE180E090E00E94A40F81E08093B000DA
:100D700089E08093B1002093B3008BEA289F212D56
:100D8000112426952093B40000E011E0C0E0D0E0EB
:100D9000F80160817181C0FF04C08091B0008F7D37
:100DA00003C08091B00080628093B000611571052E
:100DB00049F080E090E0653071058105910510F003
:100DC0000E94C60421960E5F1F4FC334D10501F760
:100DD0008091B0008F7D8093B000DF91CF911F9103
:100DE0000F9108959CB59F7D9CBD9CB5937F9CBD44
:100DF0009CB59C7F9CBD9DB591609DBD682F8091E9
:100E0000F5040E9412048FE090E00197F1F7089535
:100E100081E00C94F20680E00C94F206CF93DF930D
:100E20001F92CDB7DEB789830E940B0789810E948C
:100E3000D70589830E94080789810F90DF91CF91A0
:100E4000089581EE0C940E071F93CF93DF9300D08B
:100E5000CDB7DEB76A8389830E940B0789818F71C2
:100E600080620E94D705182F6A81862F0E94D705BD
:100E70000E940807812F0F900F90DF91CF911F9153
:100E80000895682F8091F4049091F50489130C94CF
:100E900012040895DF92EF92FF920F931F93CF9366
:100EA000DF931F92CDB7DEB7F82E2091F704D62E30
:100EB000261708F4D22E8091F804811103C0E22E87
:100EC000ED1801C0E12C99830E940B0780EA0E9473
:100ED000D7050F2D9981192FFD0CF01631F0F8016F
:100EE00081918F010E94D705F8CFEE2029F080E094
:100EF0000E94D705EA94F9CF0E94080781E00E947A
:100F000041078FEF0E940E078073D9F380E00E94A3
:100F1000410760E787E00E94240784FF04C00E9425
:100F2000210780E001C081E00F90DF91CF911F91F8
:100F30000F91FF90EF90DF900895CF93DF931F9272
:100F4000CDB7DEB789830E940B0789818F710E941C
:100F5000D7058FEF0E94D70589830E9408078981F2
:100F60000F90DF91CF91089580E00E94410780911A
:100F7000FF04909100058230910538F0880F991F89
:100F8000880F991F05970197F1F78DE10E949D0742
:100F900081FF10C08091FF0490910005823091057F
:100FA00038F0880F991F880F991F05970197F1F75F
:100FB0000E94210780E00E949D07682F6E7F80E0DD
:100FC0000E94240782E00E949D07E5E6F2E0E4919A
:100FD00061E070E001C0660FEA95EAF7682B82E0F5
:100FE0000C942407EF92FF920F931F93CF93DF93FC
:100FF00000D01F92CDB7DEB7162F4A837B8389833B
:101000000E940B0789818F7180620E94D705082F8B
:10101000E12E7B81F72E4A81140F1E1531F0F70166
:1010200081917F010E94D705F8CF0E940807802F89
:101030000F900F900F90DF91CF911F910F91FF9024
:10104000EF9008950F931F93CF93DF93CDB7DEB743
:1010500028970FB6F894DEBF0FBECDBF29833A8321
:101060004B835C836D837E838F83988704EF14E0CA
:10107000F8014285BE016F5F7F4F8AE00E94F20750
:10108000F8014285BE016F5F7F4F80E10E94F20749
:10109000F801638181E10E94240728960FB6F89435
:1010A000DEBF0FBECDBFDF91CF911F910F9108958D
:1010B000CF93DF93009779F0FC0101900020E9F7CE
:1010C0003197AF01481B590BBC018DE294E00E949F
:1010D0008001EC0102C0C0E0D0E042E050E067EBEC
:1010E00071E08DE294E00E9480018C0F9D1FDF91E2
:1010F000CF9108954F925F926F927F92AF92BF927D
:10110000CF92DF92EF92FF920F931F93CF93DF93D3
:10111000CDB7DEB727970FB6F894DEBF0FBECDBFB1
:101120008C0160E070E00E941403FC018081803437
:1011300009F07CC061E070E0C8010E941403FC016A
:101140008081843309F072C063E070E0C8010E94BE
:101150001403FC0180818C3609F068C0E12CF12C6D
:10116000F80184819581E816F90608F05FC0B7019F
:10117000C8010E941403FC01808197012F5F3F4F3B
:1011800069018C3209F050C0B901C8010E941403F2
:10119000FC0180818C3609F047C0B7016E5F7F4F3C
:1011A000C8010E941403FC016081CE0101960E94D7
:1011B0008503CE0101960E9409032B013C015B01CE
:1011C000CE0101960E948003B7016D5F7F4FC80179
:1011D0000E941403FC016081CE0101960E948503E8
:1011E000CE0101960E940903CE0101966F830E94F1
:1011F00080038091E0049091E1046F8148165906C4
:101200009CF08091DE049091DF048A159B0564F0C8
:10121000F1E04F1A5108C201880F991FFC01EE52EC
:10122000FB4F80810E94120476019ACF27960FB659
:10123000F894DEBF0FBECDBFDF91CF911F910F910C
:10124000FF90EF90DF90CF90BF90AF907F906F9026
:101250005F904F9008958F929F92AF92BF92CF92DE
:10126000DF92EF92FF920F931F93CF93DF93CDB74F
:10127000DEB72F970FB6F894DEBF0FBECDBF8C013F
:1012800060E070E00E941403FC018081803409F06A
:10129000CDC061E070E0C8010E941403FC018081B0
:1012A000843309F0C3C063E070E0C8010E941403F6
:1012B000FC018081833609F0B9C0C12CD12CF80122
:1012C00084819581C816D90608F0B0C069EB71E039
:1012D000CE0107960E94A503B601C8010E9414031F
:1012E000FC01808196012F5F3F4F79018C3269F4B8
:1012F000B901C8010E941403FC018081833629F4DE
:101300000AC08DEB91E00E945808CE0107960E941A
:1013100080036701D4CF5601F2E0AF0EB11C25E087
:10132000C20ED11CCA14DB0484F0B501C8010E94AE
:101330001403FC0180818C3241F0B501C8010E9488
:101340001403FC0180818E32E9F4CE0107960E94DD
:101350000903CB01770FAA0BBB0B86329105A8F6C8
:10136000FC01EC5CFF4F0C94C30F8AEB91E00E94F0
:1013700058086091D0047091D104CE010F960E945C
:101380009D06C3CFB501C8010E941403FC019080E3
:101390001A8219821C821B821E821D826F817885AF
:1013A0006115710539F04B855C85CE0101960E946F
:1013B0005F0304C0CE0101960E944D039D861E86E8
:1013C0008D809E80FFEF8F1A9F0AB401CE01019697
:1013D0000E942603882371F029813A818D819E81A4
:1013E000BE01635F7F4F820F931F0E94D7109E82C2
:1013F0008D8204C0CE0101960E944D0369817A81DD
:101400006115710539F04D815E81CE0107960E940C
:101410005F0304C0CE0107960E944D03CE010196E2
:101420000E9480032FEFA21AB20A7CCF2F960FB62C
:10143000F894DEBF0FBECDBFDF91CF911F910F910A
:10144000FF90EF90DF90CF90BF90AF909F908F90E4
:10145000089580E00E949D0781FD0EC080E00E94FB
:101460009D07682F626080E00E94240765E070E0BD
:1014700080E090E00C9442040895EF92FF920F9365
:101480001F93CF93DF931F92CDB7DEB7E42E9F93C8
:101490008F938FE592E09F938F9369830E948811C9
:1014A0006981E60E0F900F900F900F9007E512E004
:1014B0006E1591F0FF24F394F60E862F0E949D077F
:1014C0001F928F931F930F930E9488110F900F907C
:1014D0000F900F906F2DECCF84E592E09F938F9348
:1014E0000E9488110F900F900F90DF91CF911F9164
:1014F0000F91FF90EF900895CF93DF93CDB7DEB7B4
:10150000E2970FB6F894DEBF0FBECDBF789484B5D6
:10151000826084BD84B5816084BD85B5826085BDEF
:1015200085B5816085BD80916E00816080936E007D
:10153000109281008091810082608093810080916F
:101540008100816080938100809180008160809320
:1015500080008091B10084608093B1008091B000E0
:1015600081608093B00080917A00846080937A00DB
:1015700080917A00826080937A0080917A00816005
:1015800080937A0080917A00806880937A0010922C
:10159000C100E0913D04F0913E0482E08083E0913F
:1015A0003904F0913A041082E0913B04F0913C043C
:1015B0008FEC808310924504E0914104F091420445
:1015C00086E08083E0913F04F09140048081806157
:1015D0008083E0913F04F0914004808188608083A3
:1015E000E0913F04F0914004808180688083E09125
:1015F0003F04F091400480818F7D808360E070E043
:1016000085EC92E00E943D118091F4049091F504E4
:1016100089130E947E068091F5049091F40498133A
:101620000E947E061FB7F89480912C04811124C07B
:10163000E9E8F2E08491EDE9F2E09491E82FF0E03E
:10164000EE0FFF1FEB58FD4FA591B491EC91E923EC
:1016500021F461E08AE00E9412048AE00E947E0682
:101660008CB580618CBD8CB580648CBD8DE00E9492
:101670007E068BE00E947E0680912C048F5F809313
:101680002C041FBF80E00E94410781E00E94F20607
:1016900065E070E080E090E00E9442046CE080E051
:1016A0000E9424076FE584E00E94240782E090E016
:1016B0000E94D102882319F081E08093F60480E033
:1016C00090E00E94D1020E940B0780E50E94D7059E
:1016D00083E70E94D7050E94080760E08DE10E9421
:1016E000240760E08CE10E94240760E787E00E9405
:1016F00024076CE485E00E94240782EE0E940E0716
:101700000E9421070E94290A80E00E949D07682FFD
:101710006E7F80E00E94240760E081E00E94240741
:1017200086E00E949D07887F682F636086E00E94A4
:10173000240765E585E00E94240782E090E00E948E
:10174000D1028FEF0E940E07282F30E0982F917062
:101750001F929F9335952795277033273F932F939B
:1017600084FB992790F91F929F9385FB992790F905
:101770001F929F9386FB992790F91F929F931F9228
:101780008F938EE291E09F938F930E94881142E0A5
:101790006AE089E292E00E94DE0544E06CE08CE1C0
:1017A00092E00E943D0A41E060E183E192E00E9404
:1017B000DE0546E061E188E092E00E943D0A41E0FA
:1017C00061E081E092E00E943D0A41E062E087EF43
:1017D00091E00E943D0A41E065E080EF91E00E94C7
:1017E0003D0A41E066E087EE91E00E943D0A41E05B
:1017F00060E08FED91E00E943D0A42E06CE181EDF6
:1018000091E00E943D0A86E00E949D0788720FB613
:10181000F894DEBF0FBECDBF803241F021E090E0F2
:10182000883009F020E0E22FF92F02C0E2E0F0E07A
:10183000EE0FFF1FE553FE4F859194919F938F9379
:1018400089EB91E09F938F930E948811E091F604B9
:10185000F0E0EE0FFF1FEB54FE4F859194919F93A4
:101860008F9386EA91E09F938F930E94881180E086
:101870000E949D07182F81E00E949D070FB6F894E3
:10188000DEBF0FBECDBF13FD02C0882329F012FDBD
:1018900006C0E1E0F0E005C0E0E0F0E002C0E2E018
:1018A000F0E0EE0FFF1FE056FE4F859194919F935D
:1018B0008F938DE891E09F938F930E94881186E02B
:1018C0000E949D078670E82FF0E0EB57FE4F859150
:1018D00094919F938F9384E791E09F938F930E94BD
:1018E000881127E735E340EF53ED67EE70E080E0C5
:1018F00090E00E9422080E94B40784E00E947E06C5
:1019000069E088EA91E00E944A0769E088EA91E08C
:101910000E944A0769E088EA91E00E944A0769E06C
:1019200088EA91E00E944A0761E084E00E94120484
:101930006AEF70E080E090E00E94420460E084E0A2
:101940000E9412040FB6F894DEBF0FBECDBFAA24CA
:10195000A394B12C9E012F5F3F4F69018E01075D5B
:101960001F4F4BE1842E43E0942E0E94290A80E011
:101970000E949D07682F616080E00E94240760E755
:1019800087E00E94240781E00E9441078091F904CA
:10199000882341F04091FE0469EF74E08AE00E94E0
:1019A000F20710C082E00E949D07E5E6F2E0949104
:1019B000B50101C0660F9A95EAF76095682382E049
:1019C0000E9424078DE10E949D0781FD0E9421074E
:1019D00088EC89A382EC8AA38BA38CA38DA31EA27F
:1019E0001FA218A64091FE0450E0BE016F5D7F4F1C
:1019F00089EF94E00E94CE10ECE3F2E084914091F4
:101A0000FE04BE016F5D7F4F0E94F207E6E3F2E045
:101A100084916091F7040E94240782E00E949D0750
:101A2000E5E6F2E09491950101C0220F9A95EAF75C
:101A3000682F622B82E00E94240787E10E949D07A5
:101A400080FF25C021C00E94080760E787E00E9450
:101A50002407C6010E945808B601C8010E94A503C8
:101A6000C8010E947A08C8010E948003B601C8011B
:101A70000E94A503C8010E942B09C8010E9480038F
:101A80008981803409F45BC00E946D026ECF88E0CA
:101A9000D6011D928A95E9F71AA619A684E389A7AB
:101AA0001F930F93A1EBB1E0BF93AF93DF92CF925F
:101AB0000E94DE1028EC32EC42EC52EC62EC70E05A
:101AC00080E090E00E9422080E94B407C4010197C0
:101AD000F1F764E0C6010E944A0780E2D6011D9238
:101AE0008A95E9F78091F7040F900F900F900F906F
:101AF0000F900F90803260F190E2E92E9091F804FF
:101B0000911103C0F82EFE1801C0F12C0E940B07A2
:101B100081E60E94D7053601EA94BFEFEB1639F053
:101B20008FEF0E94D705D3018D933D01F5CFFF20A4
:101B300009F489CF8FEF0E94D705FA94F8CF8A81F4
:101B4000833309F0A1CF8C81803709F09DCF02C08B
:101B5000E82ED4CF6D81C8010E948503C8010E9480
:101B600009037093E3046093E204C8010E948003B8
:101B70008E818FA78F8188AB888589AB89858AAB59
:101B8000BE01615D7F4FC8010E94A503C8010E948C
:101B900009031B012C017B01C8010E948003121460
:101BA00013040CF077C06090E2047090E30461E0ED
:101BB00084E00E9412046091F2047091F304C70162
:101BC0000E94900F88EE93E0689F7001699FF00C6F
:101BD000789FF00C1124E2E06E167104E9F19CF498
:101BE0006A94672809F0D1C061E08091E4040E9402
:101BF0001204B701FF0C880B990B0E94420460E0AD
:101C00008091E404C0C033E063167104A1F184E064
:101C10006816710409F0B9C061E08091E4040E9483
:101C2000120461E08091E8040E94120461E0809156
:101C3000EC040E941204B701FF0C880B990B0E9460
:101C4000420460E08091E4040E94120460E080910C
:101C5000E8040E9412041AC061E08091E8040E9426
:101C60001204B701FF0C880B990B0E94420460E03C
:101C70008091E80488C061E08091EC040E94120425
:101C8000B701FF0C880B990B0E94420460E0809121
:101C9000EC0479C06090E2047090E30461E084E0B9
:101CA0000E94120488279927821993096091F204EF
:101CB0007091F3040E94900F88EE93E0689F70018A
:101CC000699FF00C789FF00C112492E06916710462
:101CD000E9F19CF46A94672809F057C061E08091AB
:101CE000E6040E941204B701FF0C880B990B0E94B6
:101CF000420460E08091E60446C0E3E06E167104A1
:101D0000A1F1F4E06F16710409F03FC061E0809129
:101D1000E6040E94120461E08091EA040E94120429
:101D200061E08091EE040E941204B701FF0C880B61
:101D3000990B0E94420460E08091E6040E94120424
:101D400060E08091EA040E9412041AC061E0809170
:101D5000EA040E941204B701FF0C880B990B0E9441
:101D6000420460E08091EA040EC061E08091EE04DC
:101D70000E941204B701FF0C880B990B0E944204C9
:101D800060E08091EE040E94120460E084E00E9412
:101D900012047ACE8AEC94E00C9480030F931F9384
:101DA000CF93DF931092300410922F0488EE93E0CB
:101DB000A0E0B0E08093310490933204A093330408
:101DC000B09334048CE991E090932E0480932D0419
:101DD00085EC90E090933A048093390484EC90E091
:101DE00090933C0480933B0480EC90E090933E04FD
:101DF00080933D0481EC90E09093400480933F04F5
:101E000082EC90E0909342048093410486EC90E051
:101E10009093440480934304109246041092470424
:101E2000109248041092490489E08093F4048AE0F7
:101E30008093F5041092F60480E28093F7041092E8
:101E4000F80485E08093FE041092F90485E090E0A8
:101E50009093E5048093E404C6E0D0E0D093E704D7
:101E6000C093E60487E090E09093E9048093E8044F
:101E700088E090E09093EB048093EA0480E190E0A6
:101E80009093ED048093EC0481E190E09093EF0453
:101E90008093EE048AE090E09093F3048093F20440
:101EA00081E090E09093F1048093F00485E00E943B
:101EB0007E068091E6040E947E068CE0ECE8F1E06C
:101EC000A2EDB4E001900D928A95E1F7D093DF0482
:101ED000C093DE0483E090E09093E1048093E004FB
:101EE000C6EDD4E08E0188810E947E06229660E0D5
:101EF000F80180810E941204F4E0CE3DDF0791F7E3
:101F000086E290E09093D1048093D00469EB71E075
:101F10008AEC94E0DF91CF911F910F910C94A5036F
:101F200097FB072E16F4009407D077FD09D00E9486
:101F3000C90F07FC05D03EF4909581959F4F0895F9
:101F4000709561957F4F0895052E97FB1EF40094C0
:101F50000E94BB0F57FD07D00E94DD0F07FC03D086
:101F60004EF40C94BB0F50954095309521953F4F02
:101F70004F4F5F4F089590958095709561957F4F75
:101F80008F4F9F4F0895EE0FFF1F0590F491E02DA6
:101F90000994AA1BBB1B51E107C0AA1FBB1FA617B0
:101FA000B70710F0A61BB70B881F991F5A95A9F702
:101FB00080959095BC01CD010895A1E21A2EAA1B2F
:101FC000BB1BFD010DC0AA1FBB1FEE1FFF1FA217E9
:101FD000B307E407F50720F0A21BB30BE40BF50BE6
:101FE000661F771F881F991F1A9469F7609570956F
:101FF000809590959B01AC01BD01CF010895A0E0B3
:10200000B0E0E5E0F0E10C948015EC01009721F4DC
:10201000CB010E949C13B8C0FC01E60FF71F9C0186
:1020200022503109E217F30708F4ACC0D9010D9131
:102030001C91119706171707B0F00530110508F429
:102040009FC0C80104978617970708F499C00250EB
:102050001109061B170B019311936D937C93CF010C
:102060000E9431148DC05B01A01AB10A4C01800E90
:10207000911EA0910C05B0910D0540E050E0E12CBF
:10208000F12C109709F44AC0A815B905D1F56D9047
:102090007C901197630182E0C80ED11CCA14DB0446
:1020A00080F1A3014A195B096A0182E0C80ED11CC4
:1020B0001296BC9012971396AC91B5E0CB16D10452
:1020C00040F0B282A38351834083D9016D937C9306
:1020D0000AC00E5F1F4FC301800F911FF90191834A
:1020E0008083EB2DFA2FE114F10431F0D701139620
:1020F000FC93EE93129744C0F0930D05E0930C050A
:102100003FC08D919C9111974817590708F4AC0175
:102110007D0112960D90BC91A02DB3CF80910A0540
:1021200090910B0588159905E1F446175707C8F4F7
:102130008091860190918701009741F48DB79EB7F9
:1021400040918A0150918B01841B950BE817F90788
:10215000C8F4F0930B05E0930A05F90171836083DD
:102160000FC0CB010E949C137C01009759F0A8017D
:10217000BE010E94CE10CE010E943114C70104C0DE
:10218000CE0102C080E090E0CDB7DEB7EEE00C9467
:102190009C1581E090E0F8940C94B315FB01DC01F0
:1021A00002C001900D9241505040D8F70895FB01B4
:1021B000DC0101900D920020E1F70895AEE0B0E05F
:1021C000E4EEF0E10C948A150D891E8986E08C837B
:1021D0001A8309838FEF9FE79E838D83AE01475E4D
:1021E0005F4F6F89788DCE0101960E94AE112F81CD
:1021F0003885F801E20FF31F10822E96E4E00C946C
:10220000A6151F93FC0199278827BC01E89411911A
:102210001032E9F3193010F01E30C8F31B3251F0C0
:102220001D3249F4689406C00E942811610F711D87
:10223000811D911D119110531A30B0F33EF4909509
:102240008095709561957F4F8F4F9F4F1F91089597
:10225000592F482F372F262F660F771F881F991F5A
:10226000660F771F881F991F620F731F841F951FAA
:10227000660F771F881F991F08950F931F93CF93A1
:10228000DF93009731F46115710519F480E090E057
:102290003AC08B01EC016EE070E081E090E00E94BA
:1022A0008013FC01892B91F380E8838301151105CC
:1022B00071F01387028781E88383809104059091F0
:1022C0000505892B21F4F0930505E093040520977B
:1022D000C9F0D187C087838182608383809106059E
:1022E00090910705892B71F4F0930705E09306059B
:1022F0008091080590910905892B21F4F093090537
:10230000E0930805CF01DF91CF911F910F910895C0
:10231000A0E0B0E0EEE8F1E10C948A15AE01495F6F
:102320005F4FDA016D917D91AD0104E015E0F80198
:1023300082819381DC0113962C9113972860139668
:102340002C930E94AE11D8011296ED91FC91139737
:102350002381277F2383E4E00C94A615ACE0B0E052
:10236000E4EBF1E10C947C157C016B018A01FC012A
:1023700017821682838181FFBDC1CE0101964C0177
:10238000F7019381F60193FD859193FF81916F0190
:10239000882309F4ABC1853239F493FD859193FF0D
:1023A00081916F01853229F4B70190E00E94E61413
:1023B000E7CF512C312C20E02032A0F48B3269F091
:1023C00030F4803259F0833269F420612CC08D32B0
:1023D00039F0803339F4216026C02260246023C0A4
:1023E000286021C027FD27C030ED380F3A3078F43F
:1023F00026FF06C0FAE05F9E300D1124532E13C055
:102400008AE0389E300D1124332E20620CC08E32AB
:1024100021F426FD6BC1206406C08C3611F42068BF
:1024200002C0883641F4F60193FD859193FF8191B6
:102430006F018111C1CF982F9F7D9554933028F45F
:102440000C5F1F4FFFE3F9830DC0833631F08337F4
:1024500071F0833509F05BC022C0F8018081898367
:102460000E5F1F4F44244394512C540115C0380172
:10247000F2E06F0E711CF801A080B18026FF03C04E
:10248000652D70E002C06FEF7FEFC5012C870E94C1
:10249000DB142C0183012C852F77222E17C03801E5
:1024A000F2E06F0E711CF801A080B18026FF03C01E
:1024B000652D70E002C06FEF7FEFC5012C870E9491
:1024C000C9142C012C852068222E830123FC1BC0FB
:1024D000832D90E048165906B0F4B70180E290E0F1
:1024E0000E94E6143A94F4CFF50127FC859127FE6B
:1024F00081915F01B70190E00E94E61431103A9497
:10250000F1E04F1A51084114510471F7E5C08436C7
:1025100011F0893639F5F80127FF07C06081718114
:10252000828193810C5F1F4F08C060817181072EEB
:10253000000C880B990B0E5F1F4F2F76722E97FFA2
:1025400009C090958095709561957F4F8F4F9F4FF3
:102550002068722E2AE030E0A4010E941E15A82EE9
:10256000A81844C0853729F42F7EB22E2AE030E027
:1025700025C0F22FF97FBF2E8F36C1F018F48835B1
:1025800079F0B4C0803719F0883721F0AFC02F2F11
:102590002061B22EB4FE0DC08B2D8460B82E09C010
:1025A00024FF0AC09F2F9660B92E06C028E030E0B5
:1025B00005C020E130E002C020E132E0F801B7FEC2
:1025C00007C060817181828193810C5F1F4F06C0BB
:1025D0006081718180E090E00E5F1F4FA4010E9436
:1025E0001E15A82EA818FB2DFF777F2E76FE0BC098
:1025F000372D3E7FA51450F474FE0AC072FC08C04B
:10260000372D3E7E05C0BA2C372D03C0BA2C01C031
:10261000B52C34FF0DC0FE01EA0DF11D8081803321
:1026200011F4397E09C032FF06C0B394B39404C0DC
:10263000832F867809F0B39433FD13C030FF06C0B2
:102640005A2CB31418F4530C5B18B32CB31468F45D
:10265000B70180E290E03C870E94E614B3943C8589
:10266000F5CFB31410F43B1801C0312C34FF12C065
:10267000B70180E390E03C870E94E6143C8532FF7E
:1026800017C031FD03C088E790E002C088E590E004
:10269000B7010CC0832F867859F031FF02C08BE25E
:1026A00001C080E237FD8DE2B70190E00E94E614A0
:1026B000A51438F4B70180E390E00E94E6145A9420
:1026C000F7CFAA94F401EA0DF11D8081B70190E0E3
:1026D0000E94E614A110F5CF332009F451CEB701C2
:1026E00080E290E00E94E6143A94F6CFF7018681EA
:1026F000978102C08FEF9FEF2C96E2E10C94981522
:102700000F931F93CF93DF93869F8001879F100DB8
:10271000969F100D1124C8010E949C13EC01009794
:1027200029F0A80160E070E00E94D414CE01DF918E
:10273000CF911F910F910895CF93DF938230910530
:1027400010F482E090E0E0910C05F0910D0520E09E
:1027500030E0C0E0D0E0309711F14081518148175E
:102760005907C0F04817590761F482819381209777
:1027700019F09B838A832BC090930D0580930C05E1
:1027800026C02115310519F04217530718F49A0194
:10279000BE01DF01EF010280F381E02DDCCF2115C6
:1027A000310509F1281B390B2430310590F41296BC
:1027B0008D919C9113976115710521F0FB01938315
:1027C000828304C090930D0580930C05FD01329621
:1027D00044C0FD01E20FF31F819391932250310910
:1027E0002D933C933AC020910A0530910B05232B81
:1027F00041F4209188013091890130930B05209399
:102800000A0520918601309187012115310541F497
:102810002DB73EB740918A0150918B01241B350B97
:10282000E0910A05F0910B05E217F307A0F42E1BC7
:102830003F0B2817390778F0AC014E5F5F4F241724
:10284000350748F04E0F5F1F50930B0540930A0564
:102850008193919302C0E0E0F0E0CF01DF91CF914E
:1028600008950F931F93CF93DF93009709F48CC0C3
:10287000FC0132971382128200910C0510910D0514
:102880000115110581F420813181820F931F209160
:102890000A0530910B052817390779F5F0930B05D8
:1028A000E0930A0571C0D80140E050E0AE17BF07C1
:1028B00050F412962D913C911397AD0121153105DD
:1028C00009F1D901F3CF9D01DA01338322836081BD
:1028D0007181860F971F8217930769F4EC01288195
:1028E0003981260F371F2E5F3F4F318320838A8126
:1028F0009B8193838283452B29F4F0930D05E0930C
:102900000C0542C01396FC93EE931297ED0149918A
:1029100059919E01240F351FE217F30771F480814E
:102920009181840F951F029611969C938E938281BC
:10293000938113969C938E931297E0E0F0E0D80178
:1029400012968D919C911397009719F0F8018C01C4
:10295000F6CF8D919C9198012E5F3F4F820F931F70
:1029600020910A0530910B052817390769F4309733
:1029700029F410920D0510920C0502C013821282E8
:1029800010930B0500930A05DF91CF911F910F91D2
:102990000895FC010590615070400110D8F78095B2
:1029A00090958E0F9F1F0895DC0101C06D934150DB
:1029B0005040E0F70895FC01615070400190011013
:1029C000D8F7809590958E0F9F1F08950F931F93B2
:1029D000CF93DF93FB01238121FD03C08FEF9FEF96
:1029E00028C022FF16C046815781248135814217B5
:1029F000530744F4A081B1819D012F5F3F4F318384
:102A000020838C93268137812F5F3F4F3783268326
:102A100010C0EB01092F182F0084F185E02D0995D6
:102A2000892BE1F68E819F8101969F838E83812F72
:102A3000902FDF91CF911F910F910895FA01AA274E
:102A4000283051F1203181F1E8946F936E7F6E5FF1
:102A50007F4F8F4F9F4FAF4FB1E03ED0B4E03CD09F
:102A6000670F781F891F9A1FA11D680F791F8A1F82
:102A7000911DA11D6A0F711D811D911DA11D20D0E9
:102A800009F468943F912AE0269F11243019305DA3
:102A90003193DEF6CF010895462F4770405D419394
:102AA000B3E00FD0C9F7F6CF462F4F70405D4A33E1
:102AB00018F0495D31FD4052419302D0A9F7EACFA9
:102AC000B4E0A6959795879577956795BA95C9F7D8
:102AD00000976105710508959B01AC010A2E0694CB
:102AE0005795479537952795BA95C9F7620F731F84
:102AF000841F951FA01D08952F923F924F925F92C1
:102B00006F927F928F929F92AF92BF92CF92DF92FD
:102B1000EF92FF920F931F93CF93DF93CDB7DEB762
:102B2000CA1BDB0B0FB6F894DEBF0FBECDBF0994F6
:102B30002A88398848885F846E847D848C849B844D
:102B4000AA84B984C884DF80EE80FD800C811B815B
:102B5000AA81B981CE0FD11D0FB6F894DEBF0FBE8A
:102B6000CDBFED01089511E0C5E5D1E004C0FE013F
:102B70000E94C30F2196C635D107C9F7F894FFCF3D
:102B800028233011580240068A0240068A02C201F8
:102B90008A02F4015802F4018A02F4015802F40195
:102BA0008A024006580272065802F4018A02400660
:102BB0005802F4018A0240065802F4018A024006D3
:102BC0008A02C2018A02F4015802F4018A02F40165
:102BD0005802F4018A0240065802F4018A02F40104
:102BE000580240068A0240068A02400658027206CF
:102BF000580240068A02F401580272065802400642
:102C00008A02F401580200000E058000050006004B
:102C100007000800100011000000000004028001FD
:102C2000CD01AB01BF014B026375727461696E31F6
:102C3000007365742573000D0A004F4E004F6666E1
:022C4000000092
:00000001FF
