:100000000C9434010C945C010C945C010C945C0124
:100010000C945C010C945C010C945C010C945C01EC
:100020000C945C010C945C010C945C010C945C01DC
:100030000C945C010C945C010C945C010C945C01CC
:100040000C9447080C945C010C9483070C945D0796
:100050000C945C010C945C010C945C010C945C01AC
:100060000C945C010C945C01D70AEA0A000B130B98
:10007000260B390B4C0B5F0B720B50415F4D4158F7
:100080000050415F484947480050415F4C4F57007E
:1000900050415F4D494E003136206269747300381B
:1000A00020626974730044697361626C6564006EF8
:1000B000524632344C30312B006E524632344C3082
:1000C00031003235304B42505300324D42505300D4
:1000D000314D425053005354415455530909203D6A
:1000E000203078253032782052585F44523D2578B0
:1000F0002054585F44533D2578204D41585F525459
:100100003D25782052585F505F4E4F3D2578205452
:10011000585F46554C4C3D25780D0A005041205003
:100120006F77657209203D2025530D0A00900089E4
:100130000081007A00435243204C656E6774680961
:10014000203D2025530D0A00A6009F0097004D6F0B
:1001500064656C0909203D2025530D0A00B900AFE4
:100160000044617461205261746509203D2025536B
:100170000D0A00D000CA00C20044594E50442F4618
:1001800045415455524500434F4E46494709005298
:10019000465F53455455500052465F434809004559
:1001A0004E5F52584144445200454E5F4141090060
:1001B00052585F50575F50302D360054585F4144BD
:1001C0004452090052585F414444525F50322D3529
:1001D0000052585F414444525F50302D310011129B
:1001E000131415160A0B0C0D0E0F00010203040563
:1001F00000000000250028002B0000000000240063
:1002000027002A0004040404040404040202020275
:1002100002020303030303030102040810204080C9
:100220000102040810200102040810200D0A002514
:100230003032780020307800255309203D000D0A27
:10024000002030782530327800255309203D000009
:100250000000080002010000030407000000000085
:1002600000000000F60D450E11241FBECFEFD8E0B0
:10027000DEBFCDBF11E0A0E0B1E0EEEDF7E202C0DD
:1002800005900D92A635B107D9F722E0A6E5B1E0B9
:1002900001C01D92AC35B207E1F711E0C3E3D1E034
:1002A00004C02197FE010E946F0EC233D107C9F727
:1002B0000E9498080C94E2130C9400009CB59F7D5A
:1002C0009CBD9CB5937F9CBD9CB59C7F9CBD9DB502
:1002D00091609DBD682F809135020E94B5078FE027
:1002E00090E00197F1F7089581E00C945E0180E0C1
:1002F0000C945E01EF92FF920F931F93CF93DF93C5
:1003000000D01F92CDB7DEB7162F4A837B83898337
:100310000E94770189818F7180620E949108082F65
:10032000E12E7B81F72E4A81140F1E1531F0F70163
:1003300081917F010E949108F8CF0E947401802F63
:100340000F900F900F90DF91CF911F910F91FF9021
:10035000EF900895CF93DF931F92CDB7DEB78983D7
:100360000E94770189818F710E9491088FEF0E940E
:10037000910889830E94740189810F90DF91CF9148
:100380000895EF92FF920F931F93CF93DF931F92E5
:10039000CDB7DEB7E42E9F938F9389E492E09F93CD
:1003A0008F9369830E94B70F6981E60E0F900F90BB
:1003B0000F900F9001E412E06E1591F0FF24F3947A
:1003C000F60E862F0E94AA011F928F931F930F9300
:1003D0000E94B70F0F900F900F900F906F2DECCFE2
:1003E0008EE392E09F938F930E94B70F0F900F9030
:1003F0000F90DF91CF911F910F91FF90EF90089593
:100400002F923F924F925F926F927F928F929F9224
:10041000AF92BF92CF92DF92EF92FF920F931F9312
:10042000CF93DF931F92CDB7DEB7562E342E6DB625
:100430007EB69F938F9388E392E09F938F930E9461
:10044000B70F350C0F900F900F900F9084E3C82ECC
:1004500082E0D82E9FE2A92E92E0B92E531409F41F
:100460004EC08DB69EB690913E02092F10E02DB77A
:100470003EB7201B310B0FB6F8943EBF0FBE2DBF09
:10048000EDB7FEB731967F0122242394250C998382
:100490000E947701852D8F710E9491082701998113
:1004A0009E0D941549F08FEF99830E949108F201F7
:1004B00081932F019981F5CF0E947401DF92CF9231
:1004C0000E94B70F0E0D1F1D0F900F9001501109C4
:1004D0000E151F0568F0F80180811F928F93BF925F
:1004E000AF920E94B70F0F900F900F900F90EECF2A
:1004F0000FB6F8949EBE0FBE8DBE522CAFCF8CE2CD
:1005000092E09F938F930E94B70F0F900F900FB6BA
:10051000F8947EBE0FBE6DBE0F90DF91CF911F91FC
:100520000F91FF90EF90DF90CF90BF90AF909F9092
:100530008F907F906F905F904F903F902F90089595
:10054000CF93DF931F92CDB7DEB789830E947701E7
:1005500089810E94910889830E94740189810F908A
:10056000DF91CF9108951F93CF93DF9300D0CDB744
:10057000DEB76A8389830E94770189818F718062E7
:100580000E949108182F6A81862F0E9491080E946C
:100590007401812F0F900F90DF91CF911F910895DB
:1005A0000F931F93CF938C0186E00E94AA01C82F5E
:1005B000C77D0230110531F4C0628BE990E0A0E004
:1005C000B0E00DC00130110529F085E590E0A0E014
:1005D000B0E005C0C86081E490E0A0E0B0E08093A6
:1005E0003F0290934002A0934102B09342026C2FCD
:1005F00086E00E94B30286E00E94AA0191E08C137B
:1006000090E0892FCF911F910F91089580E00E9473
:10061000AA0181FD0EC080E00E94AA01682F6260DD
:1006200080E00E94B30265E070E080E090E00C940E
:100630000108089581EE0C94A002682F8091340285
:100640009091350289130C94B507089590E0FC0150
:10065000E85EFD4F2491FC01EC5FFD4F84918823FF
:1006600099F090E0880F991FFC01E650FE4FA5918C
:10067000B491FC01E051FE4F859194918FB7F894AD
:10068000EC91E22BEC938FBF0895009769F0FC0189
:1006900001900020E9F73197AF01481B590BBC01CD
:1006A0008BE891E00C94740580E090E00895CF937E
:1006B000DF930E944503EC0183E491E00E9445032F
:1006C0008C0F9D1FDF91CF910895DF92EF92FF92E3
:1006D0000F931F93CF93DF931F92CDB7DEB7F82E02
:1006E00020913702213210F4E22E02C081E2E82E7E
:1006F00080913802811103C0D22EDE1801C0D12CA6
:1007000099830E94770181E60E9491080F2D9981BB
:10071000192FEA94FFEFEF1639F08FEF0E9491083E
:10072000F80181938F01F5CFDD2029F08FEF0E9432
:100730009108DA94F9CF0E94740160E787E00F9086
:10074000DF91CF911F910F91FF90EF90DF900C946C
:10075000B30287E10E94AA018095817008950E94EA
:10076000060380E00E94AA01682F616080E00E9479
:10077000B30260E787E00E94B30281E00E941D039C
:1007800080913902882341F040913E0269E372E092
:100790008AE00E947A0112C082E00E94AA01EAEE79
:1007A000F1E0E49121E030E001C0220FEA95EAF7A0
:1007B0002095622F682382E00E94B3028DE10E949F
:1007C000AA0181FD0C941A0308950F931F93CF93F0
:1007D000DF93CDB7DEB728970FB6F894DEBF0FBE14
:1007E000CDBF29833A834B835C836D837E838F8364
:1007F000988704E312E0F801428550E0BE016F5F84
:100800007F4F89E392E00E94440FE4EEF1E084918F
:10081000F8014285BE016F5F7F4F0E947A01EEEDC5
:10082000F1E08491F80163810E94B30282E00E94AA
:10083000AA01EAEEF1E0E49161E070E001C0660F28
:10084000EA95EAF7682B82E00E94B30228960FB679
:10085000F894DEBF0FBECDBFDF91CF911F910F91F6
:10086000089520912C0230912D028217930738F4BD
:1008700020912802309129022115310529F4109286
:10088000480288E492E00895820F931F0895DF9252
:10089000EF92FF920F931F93CF93DF931F92CDB7E9
:1008A000DEB7F82E20913702D62E261708F4D22E66
:1008B00080913802811103C0E22EED1801C0E12CB5
:1008C00099830E94770180EA0E9491080F2D9981F7
:1008D000192FFD0CF01631F0F80181918F010E9463
:1008E0009108F8CFEE2029F080E00E949108EA9468
:1008F000F9CF0E94740181E00E941D038FEF0E94D6
:10090000A0028073D9F380E00E941D0360E787E0B6
:100910000E94B30284FF04C00E941A0380E001C059
:1009200081E00F90DF91CF911F910F91FF90EF9099
:10093000DF90089580E00E941D0380913F02909116
:1009400040028230910538F0880F991F880F991F57
:1009500005970197F1F78DE10E94AA0181FF10C070
:1009600080913F02909140028230910538F0880FCB
:10097000991F880F991F05970197F1F70E941A0395
:1009800080E00E94AA01682F6E7F80E00E94B3027F
:1009900082E00E94AA01EAEEF1E0E49161E070E0F9
:1009A00001C0660FEA95EAF7682B82E00C94B30267
:1009B0000F931F93CF93DF93CDB7DEB728970FB672
:1009C000F894DEBF0FBECDBF29833A834B835C838F
:1009D0006D837E838F83988704E312E0F80142855C
:1009E000BE016F5F7F4F8AE00E947A01F801428565
:1009F000BE016F5F7F4F80E10E947A01F801638141
:100A000081E10E94B30228960FB6F894DEBF0FBEB4
:100A1000CDBFDF91CF911F910F910895CF93DF93B9
:100A2000FC0144815581608171818BE891E00E94D5
:100A30007405EC0183E491E00E9445038C0F9D1F37
:100A4000DF91CF9108950F931F93CF93DF93EC0124
:100A5000E9E5F1E001900020E9F73197E955F1402F
:100A60000C811D813097B9F00E0F1F1FB8010E9435
:100A70009E06882369F0288139818C819D8169E5F2
:100A800071E0820F931F0E94560F1D830C8303C0D9
:100A9000CE010E94C506CE01DF91CF911F910F912B
:100AA0000895CF93DF930097E1F020912C023091CD
:100AB0002D022115310519F41092590112C0EC01D3
:100AC00021972C173D0708F4E901609128027091E5
:100AD0002902AE0189E591E00E945D0FC75ADE4F01
:100AE0001882DF91CF910895CF92DF92EF92FF921B
:100AF0000F931F93CF93DF936C017A018B01C0E0BA
:100B0000D0E0CE15DF0589F0D8016D918D01D601B9
:100B1000ED91FC910190F081E02DC6010995892BA2
:100B200011F47E0102C02196ECCFC701DF91CF9175
:100B30001F910F91FF90EF90DF90CF900895FC01EF
:100B4000918D828D981761F0828DDF01A80FB11D04
:100B50005D968C91928D9F5F9F73928F90E0089528
:100B60008FEF9FEF0895FC01918D828D981731F0E2
:100B7000828DE80FF11D858D90E008958FEF9FEF36
:100B80000895FC01918D228D892F90E0805C9F4F0C
:100B9000821B91098F73992708958BE891E00E9439
:100BA000C10521E0892B09F420E0822F0895FC0182
:100BB000848DDF01A80FB11DA35ABF4F2C91848DE6
:100BC00090E001968F739927848FA689B7892C931B
:100BD000A089B1898C9180648C93938D848D9813B6
:100BE00006C00288F389E02D80818F7D808308957F
:100BF000EF92FF920F931F93CF93DF93EC0181E06D
:100C0000888F9B8D8C8D981305C0E889F989808128
:100C100085FD24C0F62E0B8D10E00F5F1F4F0F7364
:100C20001127E02E8C8DE8120CC00FB607FCFACF0E
:100C3000E889F989808185FFF5CFCE010E94D7052B
:100C4000F1CF8B8DFE01E80FF11DE35AFF4FF082CB
:100C50000B8FEA89FB898081806207C0EE89FF895A
:100C60006083E889F98980818064808381E090E0F5
:100C7000DF91CF911F910F91FF90EF900895CF9347
:100C8000DF93EC01888D8823C9F0EA89FB89808194
:100C900085FD05C0A889B9898C9186FD0FC00FB666
:100CA00007FCF5CF808185FFF2CFA889B9898C91A7
:100CB00085FFEDCFCE010E94D705E7CFDF91CF9121
:100CC000089580E090E0892B29F00E94CD058111E4
:100CD0000C94000008953FB7F89480914E029091D3
:100CE0004F02A0915002B091510226B5A89B05C0B9
:100CF0002F3F19F00196A11DB11D3FBFBA2FA92F9B
:100D0000982F8827820F911DA11DB11DBC01CD0117
:100D100042E0660F771F881F991F4A95D1F7089503
:100D2000CF93C82F682F8BE891E00E94F8058C2F95
:100D3000CC0F990BCF9108950E943F0F0F931F93F3
:100D4000CF93DF93EC0188819981009729F02A8164
:100D50003B812617370788F48B016F5F7F4F0E9416
:100D6000750E009761F0998388831B830A832C8119
:100D70003D81232B11F4FC01108281E001C080E051
:100D8000DF91CF911F910F910895CF93DF93EC01E5
:100D900088819981009711F00E946012198218824F
:100DA0001D821C821B821A82DF91CF910895EF92DF
:100DB000FF920F931F93CF93DF9300D0CDB7DEB791
:100DC0008C0169831A82FC01E480F580FFEFEF1A41
:100DD000FF0AB7010E949E06882381F0F801208156
:100DE000318184819581BE016F5F7F4F820F931F98
:100DF0000E94560FF801F582E48203C0C8010E94E8
:100E0000C506C8010F900F90DF91CF911F910F91F0
:100E1000FF90EF900895EF92FF920F931F93CF935F
:100E2000DF93EC017B018A01BA010E949E068111C9
:100E300004C0CE010E94C50607C01D830C83B70104
:100E4000888199810E94560FCE01DF91CF911F9129
:100E50000F91FF90EF900895CF93DF93EC01FB018A
:100E60008617970761F0608171816115710529F01E
:100E7000448155810E940B0702C00E94C506CE0125
:100E8000DF91CF910895FC01808191810C946012D3
:100E9000FC01118210821382128215821482611564
:100EA000710551F0FB0101900020E9F73197AF0186
:100EB000461B570B0C940B0708951F920F920FB609
:100EC0000F9211242F933F934F935F936F937F93D0
:100ED0008F939F93AF93BF93EF93FF938BE891E032
:100EE0000E94D705FF91EF91BF91AF919F918F9194
:100EF0007F916F915F914F913F912F910F900FBE16
:100F00000F901F9018951F920F920FB60F921124F9
:100F10002F938F939F93EF93FF93E0919B01F09119
:100F20009C018081E091A101F091A20182FD12C09B
:100F300090818091A4018F5F8F732091A50182170A
:100F400051F0E091A401F0E0E557FE4F958F8093BA
:100F5000A40101C08081FF91EF919F918F912F910A
:100F60000F900FBE0F901F90189590E0FC01E15B71
:100F7000FD4F3491FC01E85EFD4F2491FC01EC5FD4
:100F8000FD4FE491EE2309F43BC0332339F13330B4
:100F900091F038F43130A9F0323001F584B58F7D0D
:100FA00012C0373091F03830A1F03430B9F480916C
:100FB00080008F7D03C0809180008F7780938000B8
:100FC0000DC084B58F7784BD09C08091B0008F7744
:100FD00003C08091B0008F7D8093B000F0E0EE0FF1
:100FE000FF1FE051FE4FA591B4918FB7F894EC919B
:100FF000611103C020952E2301C02E2B2C938FBF8F
:1010000008958F929F92AF92BF92CF92DF92EF920C
:10101000FF926B017C010E946B064B015C01C114C5
:10102000D104E104F104F1F00E946B06DC01CB0174
:1010300088199909AA09BB09883E9340A105B10501
:1010400070F321E0C21AD108E108F10888EE880E99
:1010500083E0981EA11CB11CC114D104E104F10469
:1010600019F7DDCFFF90EF90DF90CF90BF90AF905A
:101070009F908F9008952FB7F89460914A027091D5
:101080004B0280914C0290914D022FBF08951F9208
:101090000F920FB60F9211242F933F938F939F932C
:1010A000AF93BF9380914A0290914B02A0914C0262
:1010B000B0914D023091490223E0230F2D3720F4E7
:1010C0000196A11DB11D05C026E8230F0296A11DA2
:1010D000B11D2093490280934A0290934B02A09342
:1010E0004C02B0934D0280914E0290914F02A0911C
:1010F0005002B09151020196A11DB11D80934E0284
:1011000090934F02A0935002B0935102BF91AF91C0
:101110009F918F913F912F910F900FBE0F901F9035
:1011200018958EBD00000DB407FEFDCF8EB5089555
:10113000CF93DF93CDB7DEB7A7970FB6F894DEBF96
:101140000FBECDBF789484B5826084BD84B58160C4
:1011500084BD85B5826085BD85B5816085BD809182
:101160006E00816080936E001092810080918100FA
:1011700082608093810080918100816080938100F2
:10118000809180008160809380008091B1008460B4
:101190008093B1008091B00081608093B000809115
:1011A0007A00846080937A0080917A0082608093D4
:1011B0007A0080917A00816080937A0080917A0031
:1011C000806880937A001092C100E0919B01F091B9
:1011D0009C0182E08083E0919701F0919801108258
:1011E000E0919901F0919A0180E180831092A3012E
:1011F000E0919F01F091A00186E08083E0919D0144
:10120000F0919E01808180618083E0919D01F09149
:101210009E01808188608083E0919D01F0919E0114
:10122000808180688083E0919D01F0919E018081A2
:101230008F7D808360E070E080E996E00E946C0F13
:10124000809134029091350289130E942603809187
:1012500035029091340298130E9426031FB7F89428
:1012600080915601811124C0EEE0F2E08491E2E227
:10127000F2E09491E82FF0E0EE0FFF1FE650FE4FF2
:10128000A591B491EC91E92321F461E08AE00E94F8
:10129000B5078AE00E9426038CB580618CBD8CB5B1
:1012A00080648CBD8DE00E9426038BE00E942603A3
:1012B000809156018F5F809356011FBF80E00E948E
:1012C0001D0381E00E945E0165E070E080E090E037
:1012D0000E9401086CE080E00E94B3026FE584E0A8
:1012E0000E94B30282E090E00E94D002882319F0AD
:1012F00081E08093360280E090E00E94D0020E945C
:10130000770180E50E94910883E70E9491080E947E
:10131000740160E08DE10E94B30260E08CE10E9404
:10132000B30260E787E00E94B3026CE485E00E94AC
:10133000B30282EE0E94A0020E941A030E940603DA
:1013400080E00E94AA01682F6E7F80E00E94B302B5
:1013500060E081E00E94B30286E00E94AA01682F4B
:10136000676086E00E94B30260E085E00E94B302FD
:1013700082E090E00E94D0028FEF0E94A002282F0E
:1013800030E0982F91701F929F9335952795277085
:1013900033273F932F9384FB992790F91F929F93B4
:1013A00085FB992790F91F929F9386FB992790F9C7
:1013B0001F929F931F928F9386ED90E09F938F9340
:1013C0000E94B70F42E06AE081ED91E00E940002C6
:1013D00044E06CE084EC91E00E94C10141E060E1F6
:1013E0008BEB91E00E94000246E061E180EB91E02E
:1013F0000E94C10141E061E089EA91E00E94C101DF
:1014000041E062E08FE991E00E94C10141E065E0C6
:1014100088E991E00E94C10141E066E08FE891E037
:101420000E94C10141E060E087E891E00E94C101B3
:1014300042E06CE189E791E00E94C10186E00E94F0
:10144000AA0188720FB6F894DEBF0FBECDBF8032FE
:1014500041F021E090E0883009F020E0E22FF92F00
:1014600002C0E2E0F0E0EE0FFF1FED58FE4F859165
:1014700094919F938F9381E691E09F938F930E9425
:10148000B70FE0913602F0E0EE0FFF1FE35AFE4F78
:10149000859194919F938F938EE491E09F938F9386
:1014A0000E94B70F80E00E94AA01182F81E00E94DD
:1014B000AA010FB6F894DEBF0FBECDBF13FD02C068
:1014C000882329F012FD06C0E1E0F0E005C0E0E06D
:1014D000F0E002C0E2E0F0E0EE0FFF1FE85BFE4F3D
:1014E000859194919F938F9385E391E09F938F9340
:1014F0000E94B70F86E00E94AA018670E82FF0E0F4
:10150000E35DFE4F859194919F938F938CE191E0E1
:101510009F938F930E94B70F0FB6F894DEBF0FBE54
:10152000CDBF41E2342E8E010F5F1F4F5BE1C52E10
:1015300053E0D52E6BEAE62E64E0F62E7AE0472ED5
:10154000512C612C712C0E94AF0327EC32EC42EC41
:1015500052EC62EC70E080E090E00E94E5030E94B3
:10156000A903882309F4D5C0F801232D11922A95E7
:10157000E9F7C8010E946503C8010E945703EA8188
:101580008E2FEE0F990BAA0BBB0BFC01F197E930E4
:10159000F10508F0BEC0EC5CFF4F27E735E340EFF4
:1015A00053ED67EE70E080E090E00C946F0E0E94C7
:1015B000D8040E949A04C6010197F1F765E086E11C
:1015C00091E00E944704C6010197F1F765E086E1CA
:1015D00091E012C00E94D8040E949A04C6010197AB
:1015E000F1F765E08BE191E00E944704C6010197A5
:1015F000F1F765E08BE191E00E944704C60187C0E6
:101600000E94D8040E949A04C6010197F1F765E090
:1016100080E291E00E944704C7010197F1F765E07D
:1016200080E291E071C00E94D8040E949A04C60131
:101630000197F1F765E085E291E00E944704C70158
:101640000197F1F765E085E291E05EC00E94D80461
:101650000E949A04C6010197F1F765E08AE291E0E1
:101660000E944704C7010197F1F765E08AE291E023
:101670004BC00E94D8040E949A04C6010197F1F75A
:1016800065E08FE291E00E944704C7010197F1F7FE
:1016900065E08FE291E038C00E94D8040E949A046D
:1016A000C6010197F1F765E084E391E00E944704E9
:1016B000C7010197F1F765E084E391E025C00E943E
:1016C000D8040E949A04C6010197F1F765E089E306
:1016D00091E00E944704C7010197F1F765E089E3B3
:1016E00091E012C00E94D8040E949A04C60101979A
:1016F000F1F765E08EE391E00E944704C70101978E
:10170000F1F765E08EE391E00E944704C70101977D
:10171000F1F78BE891E00E94C105892B09F472C0B2
:1017200040E050E065E471E088E292E00E940B073F
:101730008BE891E00E949F05282E1A8219821C8254
:101740001B821E821D8268E272E0C8010E942C0783
:10175000622DC8010E94D706BC0188E292E00E9477
:101760002C07C8010E94430722E0822E912CA12C55
:10177000B12C9EE2291609F448C080E090E00E9456
:101780003104FC018081803459F58BE891E00E949E
:10179000C105892BD1F38BE891E00E949F05282E8B
:1017A0001A8219821C821B821E821D8268E272E0EC
:1017B000C8010E942C07622DC8010E94D706BC01F7
:1017C00088E292E00E942C07C8010E94430754015E
:1017D0003FEF831A930A82E28816910451F615C0EE
:1017E00080E090E00E943104FC018081873669F23C
:1017F0000CC080E090E00E943104FC0180818736BB
:1018000009F42BC10E9461069ECE80E090E00E9408
:101810003104FC018081803461F710925801C501C8
:1018200001960E94510565E471E0CE0182960E9406
:1018300048071A8219821C821B821E821D82BE01E9
:101840006E5D7F4FC8010E942C0762E7C8010E94AD
:10185000D7060E942305BC01CE0182960E942C0768
:10186000C8010E944307CE0182960E940E05950191
:10187000BB0C440B550B19A2CE0181964C01CA0139
:10188000B901A30192010E944D0E605DF4016293C3
:101890004F01211531054105510589F7CF010E94FE
:1018A000450383E491E00E94450396E0892E912C44
:1018B00080915801811195C181E090E00E9431042E
:1018C000FC018081813351F425EC32EC42EC52EC86
:1018D00062EC70E080E090E00E94D80481E090E04B
:1018E0000E943104FC018081823351F426EC32ECF9
:1018F00042EC52EC62EC70E080E090E00E94D80490
:1019000081E090E00E943104FC018081833351F436
:1019100027EC32EC42EC52EC62EC70E080E090E0BC
:101920000E94D80461E070E080E090E00E9401082D
:101930000E949A0461E070E080E090E00E9401085B
:101940006A2D89E591E00E94470481E090E00E94C1
:101950003104FC018081813351F425EC32EC42ECFE
:1019600052EC62EC70E080E090E00E94E50381E0E0
:1019700090E00E943104FC018081823351F426EC16
:1019800032EC42EC52EC62EC70E080E090E00E94BD
:10199000E50381E090E00E943104FC018081833303
:1019A00051F427EC32EC42EC52EC62EC70E080E057
:1019B00090E00E94E5030E94AF030E943B08609301
:1019C00044027093450280934602909347020E941E
:1019D0003B082091440230914502409146025091CB
:1019E0004702DC01CB01821B930BA40BB50BCC97F8
:1019F000A105B10560F580915801811128C00E94B0
:101A0000A903882321F3F801232D11922A95E9F7E0
:101A1000C8010E946503C8010E94570380915A01C2
:101A2000813359F466E471E0C8010E944D0F892B9F
:101A300071F631E0309358010AC0823319F46BE437
:101A400071E0F2CF833319F660E571E0EDCF81E00C
:101A5000881A910809F02CCFC4C010925701C50113
:101A600001960E94510565E471E0CE0182960E94C4
:101A700048071A8219821C821B821E821D82BE01A7
:101A80006E5D7F4FC8010E942C0762E7C8010E946B
:101A9000D7060E942305BC01CE0182960E942C0726
:101AA000C8010E944307CE0182960E940E0581E084
:101AB00090E00E943104FC018081813351F425ECD7
:101AC00032EC42EC52EC62EC70E080E090E00E947C
:101AD000D80481E090E00E943104FC0180818233CF
:101AE00051F426EC32EC42EC52EC62EC70E080E017
:101AF00090E00E94D80486E0882E912C80915701B6
:101B000081116FC00E949A046A2D89E591E00E94BC
:101B1000470481E090E00E943104FC018081813320
:101B200061F425EC32EC42EC52EC62EC70E080E0C7
:101B300090E00E94E5030E94AF0381E090E00E94E4
:101B40003104FC018081823361F426EC32EC42ECFA
:101B500052EC62EC70E080E090E00E94E5030E94AD
:101B6000AF030E943B086093440270934502809348
:101B70004602909347020E943B0820914402309114
:101B800045024091460250914702DC01CB01821B85
:101B9000930BA40BB50B4E97A105B105E8F480910A
:101BA0005701811119C00E94A903882321F3F8016C
:101BB000232D11922A95E9F7C8010E946503C801F7
:101BC0000E94570389818736B1F68A81815382301A
:101BD00090F631E03093570181E0881A910809F0BE
:101BE0008DCFCE0182960E9443070CCEEBE8F1E048
:101BF0001382128288EE93E0A0E0B0E084839583A4
:101C0000A683B7838AE091E09183808385EC90E09E
:101C10009587848784EC90E09787868780EC90E0B6
:101C2000918B808B81EC90E0938B828B82EC90E0A7
:101C3000958B848B86EC90E0978B868B118E128E21
:101C4000138E148E0E943B086093440270934502E9
:101C50008093460290934702E4E3F2E089E08083B8
:101C60008AE08183128280E28383148285E0828706
:101C7000158265E471E08EE292E00E94480765E417
:101C800071E088E292E00C94480788E292E00E94BA
:101C900043078EE292E00C944307A1E21A2EAA1B9E
:101CA000BB1BFD010DC0AA1FBB1FEE1FFF1FA2170C
:101CB000B307E407F50720F0A21BB30BE40BF50B09
:101CC000661F771F881F991F1A9469F76095709592
:101CD000809590959B01AC01BD01CF010895EE0F59
:101CE000FF1F0590F491E02D0994A0E0B0E0EBE730
:101CF000FEE00C94AF13EC01009721F4CB010E949D
:101D0000CB11B8C0FC01E60FF71F9C01225031092E
:101D1000E217F30708F4ACC0D9010D911C9111979B
:101D200006171707B0F00530110508F49FC0C80169
:101D300004978617970708F499C002501109061BEB
:101D4000170B019311936D937C93CF010E94601246
:101D50008DC05B01A01AB10A4C01800E911EA091AA
:101D60005A02B0915B0240E050E0E12CF12C109758
:101D700009F44AC0A815B905D1F56D907C9011976A
:101D8000630182E0C80ED11CCA14DB0480F1A301F8
:101D90004A195B096A0182E0C80ED11C1296BC90F8
:101DA00012971396AC91B5E0CB16D10440F0B282F5
:101DB000A38351834083D9016D937C930AC00E5F46
:101DC0001F4FC301800F911FF90191838083EB2D79
:101DD000FA2FE114F10431F0D7011396FC93EE933E
:101DE000129744C0F0935B02E0935A023FC08D917A
:101DF0009C9111974817590708F4AC017D01129680
:101E00000D90BC91A02DB3CF8091580290915902B2
:101E100088159905E1F446175707C8F48091000129
:101E200090910101009741F48DB79EB74091040154
:101E300050910501841B950BE817F907C8F4F0933E
:101E40005902E0935802F901718360830FC0CB01FE
:101E50000E94CB117C01009759F0A801BE010E949D
:101E6000440FCE010E946012C70104C0CE0102C01F
:101E700080E090E0CDB7DEB7EEE00C94CB1381E0CC
:101E800090E0F8940C94E213FB01DC0102C0019095
:101E90000D9241505040D8F70895FB01DC018D911F
:101EA000019080190110D9F3990B0895FB01DC0111
:101EB00001900D920020E1F70895FB01DC014150F3
:101EC000504048F001900D920020C9F701C01D92CA
:101ED00041505040E0F708950F931F93CF93DF9345
:101EE000009731F46115710519F480E090E03AC073
:101EF0008B01EC016EE070E081E090E00E94AF1198
:101F0000FC01892B91F380E883830115110571F0A1
:101F10001387028781E88383809152029091530254
:101F2000892B21F4F0935302E09352022097C9F0D9
:101F3000D187C0878381826083838091540290918E
:101F40005502892B71F4F0935502E093540280916D
:101F5000560290915702892B21F4F0935702E09397
:101F60005602CF01DF91CF911F910F910895A0E00C
:101F7000B0E0EDEBFFE00C94B913AE01495F5F4FA9
:101F8000DA016D917D91AD0102E512E0F8018281E7
:101F90009381DC0113962C911397286013962C9350
:101FA0000E94DD0FD8011296ED91FC9113972381C9
:101FB000277F2383E4E00C94D513ACE0B0E0E3EE9C
:101FC000FFE00C94AB137C016B018A01FC011782CA
:101FD0001682838181FFBDC1CE0101964C01F701BC
:101FE0009381F60193FD859193FF81916F01882381
:101FF00009F4ABC1853239F493FD859193FF81914A
:102000006F01853229F4B70190E00E941513E7CFE4
:10201000512C312C20E02032A0F48B3269F030F4C6
:10202000803259F0833269F420612CC08D3239F04E
:10203000803339F4216026C02260246023C02860E8
:1020400021C027FD27C030ED380F3A3078F426FF45
:1020500006C0FAE05F9E300D1124532E13C08AE0B3
:10206000389E300D1124332E20620CC08E3221F4A4
:1020700026FD6BC1206406C08C3611F4206802C0B6
:10208000883641F4F60193FD859193FF81916F01AC
:102090008111C1CF982F9F7D9554933028F40C5F08
:1020A0001F4FFFE3F9830DC0833631F0833771F0A2
:1020B000833509F05BC022C0F801808189830E5FFF
:1020C0001F4F44244394512C540115C03801F2E0B1
:1020D0006F0E711CF801A080B18026FF03C0652D32
:1020E00070E002C06FEF7FEFC5012C870E940A13DA
:1020F0002C0183012C852F77222E17C03801F2E0A6
:102100006F0E711CF801A080B18026FF03C0652D01
:1021100070E002C06FEF7FEFC5012C870E94F812BC
:102120002C012C852068222E830123FC1BC0832DCB
:1021300090E048165906B0F4B70180E290E00E94A2
:1021400015133A94F4CFF50127FC859127FE819170
:102150005F01B70190E00E94151331103A94F1E04D
:102160004F1A51084114510471F7E5C0843611F03B
:10217000893639F5F80127FF07C0608171818281B6
:1021800093810C5F1F4F08C060817181072E000C86
:10219000880B990B0E5F1F4F2F76722E97FF09C089
:1021A00090958095709561957F4F8F4F9F4F2068D8
:1021B000722E2AE030E0A4010E944D13A82EA81828
:1021C00044C0853729F42F7EB22E2AE030E025C0A6
:1021D000F22FF97FBF2E8F36C1F018F4883579F0D1
:1021E000B4C0803719F0883721F0AFC02F2F20619D
:1021F000B22EB4FE0DC08B2D8460B82E09C024FF12
:102200000AC09F2F9660B92E06C028E030E005C0B6
:1022100020E130E002C020E132E0F801B7FE07C063
:1022200060817181828193810C5F1F4F06C0608144
:10223000718180E090E00E5F1F4FA4010E944D135A
:10224000A82EA818FB2DFF777F2E76FE0BC0372D0A
:102250003E7FA51450F474FE0AC072FC08C0372DEE
:102260003E7E05C0BA2C372D03C0BA2C01C0B52C58
:1022700034FF0DC0FE01EA0DF11D8081803311F4A1
:10228000397E09C032FF06C0B394B39404C0832FD3
:10229000867809F0B39433FD13C030FF06C05A2C82
:1022A000B31418F4530C5B18B32CB31468F4B701CF
:1022B00080E290E03C870E941513B3943C85F5CFF3
:1022C000B31410F43B1801C0312C34FF12C0B70115
:1022D00080E390E03C870E9415133C8532FF17C0D5
:1022E00031FD03C088E790E002C088E590E0B701C7
:1022F0000CC0832F867859F031FF02C08BE201C0F9
:1023000080E237FD8DE2B70190E00E941513A5141D
:1023100038F4B70180E390E00E9415135A94F7CF88
:10232000AA94F401EA0DF11D8081B70190E00E94AA
:102330001513A110F5CF332009F451CEB70180E277
:1023400090E00E9415133A94F6CFF70186819781A9
:1023500002C08FEF9FEF2C96E2E10C94C7130F930E
:102360001F93CF93DF93869F8001879F100D969FC9
:10237000100D1124C8010E94CB11EC01009729F027
:10238000A80160E070E00E940313CE01DF91CF91BD
:102390001F910F910895CF93DF938230910510F430
:1023A00082E090E0E0915A02F0915B0220E030E0A0
:1023B000C0E0D0E0309711F14081518148175907B2
:1023C000C0F04817590761F482819381209719F072
:1023D0009B838A832BC090935B0280935A0226C012
:1023E0002115310519F04217530718F49A01BE015F
:1023F000DF01EF010280F381E02DDCCF21153105F3
:1024000009F1281B390B2430310590F412968D9177
:102410009C9113976115710521F0FB0193838283D1
:1024200004C090935B0280935A02FD01329644C02F
:10243000FD01E20FF31F81939193225031092D93F7
:102440003C933AC02091580230915902232B41F419
:1024500020910201309103013093590220935802D8
:1024600020910001309101012115310541F42DB772
:102470003EB74091040150910501241B350BE091BA
:102480005802F0915902E217F307A0F42E1B3F0BFC
:102490002817390778F0AC014E5F5F4F24173507D6
:1024A00048F04E0F5F1F509359024093580281939A
:1024B000919302C0E0E0F0E0CF01DF91CF91089569
:1024C0000F931F93CF93DF93009709F48CC0FC0107
:1024D00032971382128200915A0210915B02011509
:1024E000110581F420813181820F931F20915802C0
:1024F000309159022817390779F5F0935902E09382
:10250000580271C0D80140E050E0AE17BF0750F448
:1025100012962D913C911397AD012115310509F1CA
:10252000D901F3CF9D01DA01338322836081718168
:10253000860F971F8217930769F4EC012881398170
:10254000260F371F2E5F3F4F318320838A819B8167
:1025500093838283452B29F4F0935B02E0935A0224
:1025600042C01396FC93EE931297ED014991599155
:102570009E01240F351FE217F30771F480819181CA
:10258000840F951F029611969C938E93828193815E
:1025900013969C938E931297E0E0F0E0D801129688
:1025A0008D919C911397009719F0F8018C01F6CF4B
:1025B0008D919C9198012E5F3F4F820F931F209128
:1025C0005802309159022817390769F4309729F4D5
:1025D00010925B0210925A0202C013821282109370
:1025E000590200935802DF91CF911F910F910895E6
:1025F000FC010590615070400110D8F780959095CE
:102600008E0F9F1F0895DC0101C06D934150504013
:10261000E0F70895FC016150704001900110D8F777
:10262000809590958E0F9F1F08950F931F93CF93C2
:10263000DF93FB01238121FD03C08FEF9FEF28C0B3
:1026400022FF16C0468157812481358142175307E6
:1026500044F4A081B1819D012F5F3F4F31832083DE
:102660008C93268137812F5F3F4F3783268310C09D
:10267000EB01092F182F0084F185E02D0995892B96
:10268000E1F68E819F8101969F838E83812F902F0B
:10269000DF91CF911F910F910895FA01AA27283059
:1026A00051F1203181F1E8946F936E7F6E5F7F4F1F
:1026B0008F4F9F4FAF4FB1E03ED0B4E03CD0670F9B
:1026C000781F891F9A1FA11D680F791F8A1F911DEE
:1026D000A11D6A0F711D811D911DA11D20D009F43E
:1026E00068943F912AE0269F11243019305D319380
:1026F000DEF6CF010895462F4770405D4193B3E069
:102700000FD0C9F7F6CF462F4F70405D4A3318F00F
:10271000495D31FD4052419302D0A9F7EACFB4E0C0
:10272000A6959795879577956795BA95C9F7009778
:102730006105710508959B01AC010A2E0694579519
:10274000479537952795BA95C9F7620F731F841F70
:10275000951FA01D08952F923F924F925F926F9206
:102760007F928F929F92AF92BF92CF92DF92EF9221
:10277000FF920F931F93CF93DF93CDB7DEB7CA1BA2
:10278000DB0B0FB6F894DEBF0FBECDBF09942A88CD
:10279000398848885F846E847D848C849B84AA8475
:1027A000B984C884DF80EE80FD800C811B81AA8102
:1027B000B981CE0FD11D0FB6F894DEBF0FBECDBFCD
:1027C000ED01089511E0C3E3D1E004C0FE010E94D1
:0E27D0006F0E2196C433D107C9F7F894FFCFDE
:1027DE0000005C02800000000000F8057405C105D1
:1027EE009F05B3053F0661636B310061636B320079
:1027FE0061636B330061636B340061636B35006141
:10280E00636B360061636B370061636B3800616325
:10281E006B39000D0A0073657431007365743200F4
:06282E0073657433000025
:107800000C94343C0C94513C0C94513C0C94513CE1
:107810000C94513C0C94513C0C94513C0C94513CB4
:107820000C94513C0C94513C0C94513C0C94513CA4
:107830000C94513C0C94513C0C94513C0C94513C94
:107840000C94513C0C94513C0C94513C0C94513C84
:107850000C94513C0C94513C0C94513C0C94513C74
:107860000C94513C0C94513C11241FBECFEFD8E036
:10787000DEBFCDBF11E0A0E0B1E0ECE9FFE702C060
:1078800005900D92A230B107D9F712E0A2E0B1E065
:1078900001C01D92AD30B107E1F70E942D3D0C945F
:1078A000CC3F0C94003C982F959595959595959582
:1078B000905D8F708A307CF0282F295A8091C0000B
:1078C00085FFFCCF9093C6008091C00085FFFCCF60
:1078D0002093C6000895282F205DF0CF982F809127
:1078E000C00085FFFCCF9093C6000895EF92FF92F1
:1078F0000F931F93EE24FF2487018091C00087FD22
:1079000017C00894E11CF11C011D111D81E4E8164B
:1079100082E4F8068FE0080780E0180770F3E09132
:107920000401F091050109958091C00087FFE9CF1E
:107930008091C6001F910F91FF90EF9008950E94D3
:10794000763C982F8091C00085FFFCCF9093C600B5
:1079500091362CF490330CF09053892F089597555D
:10796000892F08951F930E949F3C182F0E949F3CCF
:107970001295107F810F1F9108951F93182F882350
:1079800021F00E94763C1150E1F71F9108951F935A
:10799000182F0E94763C803249F0809103018F5F5E
:1079A000809303018530C1F01F9108958091C0003C
:1079B00085FFFCCF84E18093C6008091C00085FFE5
:1079C000FCCF1093C6008091C00085FFFCCF80E102
:1079D0008093C6001F910895E0910401F091050184
:1079E00009951F9108950E94763C803241F0809164
:1079F00003018F5F80930301853081F008958091AA
:107A0000C00085FFFCCF84E18093C6008091C00058
:107A100085FFFCCF80E18093C6000895E0910401CA
:107A2000F09105010995089540E951E08823A1F0FE
:107A30002D9A28EE33E0FA013197F1F721503040CA
:107A4000D1F72D9828EE33E0FA013197F1F7215064
:107A50003040D1F7815061F708953F924F925F9285
:107A60006F927F928F929F92AF92BF92CF92DF924E
:107A7000EF92FF920F931F93CF93DF93000080E16B
:107A80008093C4001092C50088E18093C10086E015
:107A90008093C2005098589A259A81E00E94143D24
:107AA00024E1F22E9EE1E92E85E9D82E0FE0C02ECA
:107AB00010E1B12EAA24A394B1E49B2EA6E58A2E50
:107AC000F2E57F2EE0E26E2E79E4572E63E5462E36
:107AD00050E5352E0E94763C8033B1F18133B9F107
:107AE000803409F46FC0813409F476C0823409F41B
:107AF00085C0853409F488C0803531F1823521F1A3
:107B0000813511F1853509F485C0863509F48DC0BC
:107B1000843609F496C0843709F403C1853709F423
:107B200072C1863709F466C0809103018F5F80932C
:107B30000301853079F6E0910401F0910501099582
:107B40000E94763C803351F60E94F33CC3CF0E94E2
:107B5000763C803249F78091C00085FFFCCFF092DF
:107B6000C6008091C00085FFFCCF9092C600809136
:107B7000C00085FFFCCF8092C6008091C00085FFC9
:107B8000FCCF7092C6008091C00085FFFCCF609250
:107B9000C6008091C00085FFFCCF5092C600809146
:107BA000C00085FFFCCF4092C6008091C00085FFD9
:107BB000FCCF3092C6008091C00085FFFCCFB09210
:107BC000C60088CF0E94763C863808F4BDCF0E945C
:107BD000763C0E94F33C7ECF0E94763C803809F4CC
:107BE0009CC0813809F40BC1823809F43CC1883942
:107BF00009F48FC080E00E94C73C6CCF84E10E94F2
:107C0000BD3C0E94F33C66CF85E00E94BD3C0E94D3
:107C1000F33C60CF0E94763C809306010E94763C44
:107C2000809307010E94F33C55CF0E94763C80333D
:107C300009F41DC183E00E94BD3C80E00E94C73C66
:107C400049CF0E94763C809309020E94763C809343
:107C5000080280910C028E7F80930C020E94763C79
:107C6000853409F415C18091080290910902892B8D
:107C700089F000E010E00E94763CF801E85FFE4FDA
:107C800080830F5F1F4F80910802909109020817AF
:107C9000190788F30E94763C803209F045CF809125
:107CA0000C0280FF01C16091060170910701660F0F
:107CB000771F7093070160930601A0910802B091AD
:107CC00009021097C9F0E8E0F1E09B01AD014E0F09
:107CD0005F1FF999FECF32BD21BD819180BDFA9A17
:107CE000F99A2F5F3F4FE417F50799F76A0F7B1F4B
:107CF00070930701609306018091C00085FFFCCF5F
:107D0000F092C6008091C00085FFFCCFB092C60003
:107D1000E1CE83E00E94C73CDDCE82E00E94C73CFA
:107D2000D9CE0E94763C809309020E94763C8093D3
:107D300008028091060190910701880F991F909386
:107D40000701809306010E94763C853409F4A6C0A1
:107D500080910C028E7F80930C020E94763C8032D0
:107D600009F0B8CE8091C00085FFFCCFF092C6002C
:107D7000609108027091090261157105B9F140E046
:107D800050E080910C02A82FA170B82FB27011C0E2
:107D9000BB2309F45CC0E0910601F0910701319624
:107DA000F0930701E09306014F5F5F4F46175707B7
:107DB000E8F4AA2369F3F999FECF209106013091E6
:107DC000070132BD21BDF89A90B58091C00085FFB2
:107DD000FCCF9093C6002F5F3F4F30930701209355
:107DE00006014F5F5F4F4617570718F38091C00099
:107DF00085FDE5CE8091C00085FFF8CFE0CE81E023
:107E00000E94C73C67CE0E94763C803209F08CCE3F
:107E10008091C00085FFFCCFF092C6008091C00029
:107E200085FFFCCFE092C6008091C00085FFFCCFAB
:107E3000D092C6008091C00085FFFCCFC092C600E2
:107E40008091C00085FFFCCFB092C60043CEE09188
:107E50000601F091070194918091C00085FFFCCF4D
:107E60009093C6009CCF80E10E94C73C33CE0E9415
:107E7000763C0E94763C182F0E94763C112309F430
:107E800083C0113009F484C08FE00E94C73C22CE29
:107E900080910C02816080930C02E5CE80910C02EF
:107EA000816080930C0259CF809107018823880F4D
:107EB000880B8A2180930B02809106019091070123
:107EC000880F991F90930701809306018091080203
:107ED00080FF09C080910802909109020196909359
:107EE000090280930802F894F999FECF1127E091D6
:107EF0000601F0910701C8E0D1E08091080290915D
:107F00000902103091F40091570001700130D9F34B
:107F100003E000935700E89500915700017001308D
:107F2000D9F301E100935700E89509901990009169
:107F3000570001700130D9F301E000935700E89534
:107F40001395103498F011270091570001700130FB
:107F5000D9F305E000935700E895009157000170B0
:107F60000130D9F301E100935700E895329602976A
:107F700009F0C7CF103011F00296E5CF112480919F
:107F8000C00085FFB9CEBCCE8EE10E94C73CA2CD19
:0C7F900085E90E94C73C9ECDF894FFCF0D
:027F9C00800063
:040000030000780081
:00000001FF
