:100000000C946C000C94CA040C94A3040C949400FB
:100010000C9494000C9494000C94F1040C949400AF
:100020000C9494000C9494000C9494000C94940000
:100030000C9494000C9494000C9494000C949400F0
:100040000C9459040C9494000C9465030C943F0395
:100050000C9494000C9494000C9494000C949400D0
:100060000C9494000C9494001112131415160A0B9E
:100070000C0D0E0F00000000250028002B000000D2
:100080000008000201000003040700000000000057
:10009000000000000000240027002A0000000000EB
:1000A00023002600290000010203040504040404BF
:1000B0000404040402020202020203030303030312
:1000C00001020408102040800102040810200102EF
:1000D00004081020D50DCD0D11241FBECFEFD8E0A0
:1000E000DEBFCDBF11E0A0E0B1E0EEE9F5E202C075
:1000F00005900D92A634B107D9F722E0A6E4B1E04D
:1001000001C01D92A536B207E1F710E0CBE6D0E0C2
:1001100004C02197FE010E948E0ECA36D107C9F78E
:100120000E94800B0C94C2120C940000CF92DF92BC
:10013000EF92FF920F931F93CF93DF936C017A019D
:100140008B01C0E0D0E0CE15DF0589F0D8016D91BC
:100150008D01D601ED91FC910190F081E02DC60159
:100160000995892B11F47E0102C02196ECCFC701BD
:10017000DF91CF911F910F91FF90EF90DF90CF9083
:100180000895FC01918D828D981761F0828DDF01B9
:10019000A80FB11D5D968C91928D9F5F9F73928F7A
:1001A00090E008958FEF9FEF0895FC01918D828D6F
:1001B000981731F0828DE80FF11D858D90E008953C
:1001C0008FEF9FEF0895FC01918D228D892F90E094
:1001D000805C9F4F821B91098F73992708958EE849
:1001E00091E00E94E30021E0892B09F420E0822FB6
:1001F0000895FC01848DDF01A80FB11DA35ABF4FE4
:100200002C91848D90E001968F739927848FA68915
:10021000B7892C93A089B1898C9180648C93938D3C
:10022000848D981306C00288F389E02D80818F7D2C
:1002300080830895EF92FF920F931F93CF93DF93E4
:10024000EC0181E0888F9B8D8C8D981305C0E88927
:10025000F989808185FD24C0F62E0B8D10E00F5F9B
:100260001F4F0F731127E02E8C8DE8120CC00FB6B4
:1002700007FCFACFE889F989808185FFF5CFCE01A7
:100280000E94F900F1CF8B8DFE01E80FF11DE35ABA
:10029000FF4FF0820B8FEA89FB898081806207C063
:1002A000EE89FF896083E889F98980818064808391
:1002B00081E090E0DF91CF911F910F91FF90EF903F
:1002C0000895CF93DF93EC01888D8823C9F0EA89E4
:1002D000FB89808185FD05C0A889B9898C9186FD3F
:1002E0000FC00FB607FCF5CF808185FFF2CFA8893C
:1002F000B9898C9185FFEDCFCE010E94F900E7CF3F
:10030000DF91CF91089580E090E0892B29F00E9441
:10031000EF0081110C94000008953FB7F89480918C
:10032000860190918701A0918801B091890126B53D
:10033000A89B05C02F3F19F00196A11DB11D3FBF1D
:10034000BA2FA92F982F8827820F911DA11DB11DAB
:10035000BC01CD0143E0660F771F881F991F4A95A6
:10036000D1F7089508954115510529F4EAE7F0E021
:1003700080818F7780836A307105A9F063FD02C0A8
:1003800088E001C088E26770682B88E10FB6F894B6
:10039000A895809360000FBE60936000E0E6F0E0F7
:1003A000808180648083232BA1F483B7817F846064
:1003B00083BFF89483B7816083BF85B7806685BFAC
:1003C0008F7D85BF7894889583B78E7F83BF78941F
:1003D0000EC083B7817F846083BFF89483B7816048
:1003E00083BF7894889583B78E7F83BF7894452B9D
:1003F00029F4EAE7F0E080818068808308950F9314
:100400001F93CF938C0186E00E949709C82FC77D68
:100410000230110531F4C0628BE990E0A0E0B0E059
:100420000DC00130110529F085E590E0A0E0B0E0B5
:1004300005C0C86081E490E0A0E0B0E080934A028B
:1004400090934B02A0934C02B0934D026C2F86E028
:100450000E947A0986E00E94970991E08C1390E04F
:10046000892FCF911F910F9108950E942E110F9304
:100470001F93CF93DF93EC0188819981009729F036
:100480002A813B812617370788F48B016F5F7F4FE6
:100490000E946410009761F0998388831B830A830C
:1004A0002C813D81232B11F4FC01108281E001C0DD
:1004B00080E0DF91CF911F910F910895EF92FF920D
:1004C0000F931F93CF93DF93FC0124813581611536
:1004D000710511F480E019C041155105A9F07B01A7
:1004E000EC018A01020F131FB8010E943702882312
:1004F00089F3288139818C819D81B701820F931FF7
:100500000E9445111D830C8381E0DF91CF911F91E3
:100510000F91FF90EF900895CF93DF93EC018881C6
:100520009981009711F00E94CC0F198218821D82C8
:100530001C821B821A82DF91CF910895EF92FF9265
:100540000F931F93CF93DF93CDB7DEB728970FB6E6
:10055000F894DEBF0FBECDBF7C01CB014AE08E0117
:100560000F5F1F4FB8010E945B11F801019000203E
:10057000E9F73197AF01401B510BB801C7010E9449
:100580005E02811103C0C7010E948C02C701289638
:100590000FB6F894DEBF0FBECDBFDF91CF911F9194
:1005A0000F91FF90EF900895CF93DF93EC016115C9
:1005B000710561F0FB0101900020E9F73197AF016F
:1005C000461B570B0E945E02811103C0CE010E94A0
:1005D0008C02CE01DF91CF910895EF92FF920F939D
:1005E0001F93CF93DF93EC017B018A01BA010E9434
:1005F0003702811104C0CE010E948C0207C01D8306
:100600000C83B701888199810E944511CE01DF9149
:10061000CF911F910F91FF90EF900895CF93DF93AB
:10062000EC01FB018617970761F06081718161150C
:10063000710529F0448155810E94ED0202C00E949B
:100640008C02CE01DF91CF910895FC0180819181D0
:100650000C94CC0FFC01118210821382128215823D
:1006600014826115710551F0FB0101900020E9F73A
:100670003197AF01461B570B0C94ED0208951F9262
:100680000F920FB60F9211242F933F934F935F93C6
:100690006F937F938F939F93AF93BF93EF93FF934A
:1006A0008EE891E00E94F900FF91EF91BF91AF9128
:1006B0009F918F917F916F915F914F913F912F917A
:1006C0000F900FBE0F901F9018951F920F920FB6AC
:1006D0000F9211242F938F939F93EF93FF93E091A9
:1006E0009E01F0919F018081E091A401F091A5010C
:1006F00082FD12C090818091A7018F5F8F7320913E
:10070000A801821751F0E091A701F0E0E257FE4FF7
:10071000958F8093A70101C08081FF91EF919F91F8
:100720008F912F910F900FBE0F901F90189590E012
:10073000FC01E258FF4F3491FC01E054FF4F24913B
:10074000FC01E455FF4FE491EE2309F43BC0332351
:1007500039F1333091F038F43130A9F0323001F50D
:1007600084B58F7D12C0373091F03830A1F034302D
:10077000B9F4809180008F7D03C0809180008F77D5
:10078000809380000DC084B58F7784BD09C08091AF
:10079000B0008F7703C08091B0008F7D8093B00050
:1007A000F0E0EE0FFF1FEC58FF4FA591B4918FB70B
:1007B000F894EC91611103C020952E2301C02E2BDB
:1007C0002C938FBF0895CF93DF9390E0FC01E0540A
:1007D000FF4F2491FC01E455FF4F8491882361F180
:1007E00090E0880F991FFC01EE56FF4FC591D49100
:1007F000FC01EC58FF4FA591B491611109C09FB75E
:10080000F8948881209582238883EC912E230BC055
:10081000623061F49FB7F8943881822F80958323EA
:100820008883EC912E2B2C939FBF06C08FB7F89432
:10083000E8812E2B28838FBFDF91CF9108958F926F
:100840009F92AF92BF92CF92DF92EF92FF926B0195
:100850007C010E948D014B015C01C114D104E104B3
:10086000F104F1F00E948D01DC01CB018819990996
:10087000AA09BB09883E9340A105B10570F321E0A8
:10088000C21AD108E108F10888EE880E83E0981EAC
:10089000A11CB11CC114D104E104F10419F7DDCF8E
:1008A000FF90EF90DF90CF90BF90AF909F908F9090
:1008B00008951F920F920FB60F9211242F933F931A
:1008C0008F939F93AF93BF9380912B0290912C02B3
:1008D000A0912D02B0912E023091850126E0230FC8
:1008E0002D3720F40296A11DB11D05C029E8230F64
:1008F0000396A11DB11D2093850180932B02909337
:100900002C02A0932D02B0932E028091860190912B
:100910008701A0918801B09189010196A11DB11DA7
:100920008093860190938701A0938801B0938901F9
:10093000BF91AF919F918F913F912F910F900FBEDB
:100940000F901F9018951F920F920FB60F921124BF
:100950002F933F934F935F936F937F938F939F93C7
:10096000AF93BF93EF93FF93E0910601F0910701DE
:100970000995FF91EF91BF91AF919F918F917F91D9
:100980006F915F914F913F912F910F900FBE0F90FC
:100990001F9018951F920F920FB60F9211242F934C
:1009A0003F934F935F936F937F938F939F93AF93F7
:1009B000BF93EF93FF93E0910401F0910501099536
:1009C000FF91EF91BF91AF919F918F917F916F9127
:1009D0005F914F913F912F910F900FBE0F901F90FD
:1009E00018951F920F920FB60F9211248F930FB686
:1009F000F894A895809160008861809360001092BF
:100A000060000FBE8F910F900FBE0F901F90189532
:100A10008EBD00000DB407FEFDCF8EB508952F9258
:100A20003F924F925F926F927F928F929F92AF927E
:100A3000BF92CF92DF92EF92FF920F931F93CF93CB
:100A4000DF93CDB7DEB7E7970FB6F894DEBF0FBEE2
:100A5000CDBF4C015B016A013701A89561E087E0D9
:100A60000E94970340E050E064E371E089E392E084
:100A70000E94ED021A8219821C821B821E821D8234
:100A800069E372E0CE0101967C010E940E0380E4CE
:100A90008CA31DA241E050E0BE016C5D7F4FC701F9
:100AA0000E945E02811103C0C7010E948C0261E0B6
:100AB00070E0C7010E949E026EE171E00E94D402C4
:100AC000B4010E949E0262E271E00E94D402B5016C
:100AD0000E949E0266E271E00E94D402B6010E946A
:100AE0009E026AE271E00E94D402B8010E949E0256
:100AF0006EE271E00E94D402B3010E949E0260E3A4
:100B000071E00E94D402BC0189E392E00E940E03CE
:100B1000C7010E94250360913D0270913E02409101
:100B2000390250913A0220917E0130917F0180E09C
:100B300090E08617970718F44115510529F4109293
:100B40004A01EAE4F1E003C0FA01E80FF91FE0818D
:100B5000EE3219F49C012E5F3F4F019682329105CF
:100B600041F730937F0120937E0110927D012AE0AE
:100B7000C22ED12C3EE6432E30E0532E46EAA42E60
:100B800040E0B42E88248394912C80917D018111C2
:100B900093C00E94A00A0E94660A10917E01412F14
:100BA00050917F014115510531F06BE471E089E30B
:100BB00092E00E943B09612F8BE491E00E940D0AB4
:100BC00087E78CA385E38DA380EF8EA383ED8FA3AE
:100BD00087EE88A719A61AA61BA64091490250E0E5
:100BE000BE016C5D7F4F84E492E00E943311F201FC
:100BF000849140914902BE016C5D7F4F0E94C00903
:100C0000E8E6F0E08491609142020E947A0982E075
:100C10000E949709F5019491940101C0220F9A95C1
:100C2000EAF7682F622B82E00E947A090E94F90994
:100C300080E00E949709682F616080E00E947A0935
:100C400060E787E00E947A0981E00E94F0098091C4
:100C50004402882341F04091490264E472E08AE052
:100C60000E94C0090FC082E00E949709F50194918B
:100C7000B40101C0660F9A95EAF76095682382E097
:100C80000E947A098DE10E94970981FD0E94AE09B8
:100C900000ED17E087E10E94970980FF2EC004C095
:100CA000CE018C960E9425030150110999F781E02D
:100CB000C81AD10809F069CF60E084E00E94970368
:100CC00060E087E00E949703E7960FB6F894DEBFD6
:100CD0000FBECDBFDF91CF911F910F91FF90EF908D
:100CE000DF90CF90BF90AF909F908F907F906F904C
:100CF0005F904F903F902F900895F70183E21192FB
:100D00008A95E9F780914202833208F48BC093E21E
:100D1000292E20914302211103C0382E321801C020
:100D2000312C0E94770981E60E94080537012A9438
:100D3000FFEF2F1639F08FEF0E940805F301819322
:100D40003F01F5CF332029F08FEF0E9408053A9438
:100D5000F9CF0E94740960E787E00E947A09F701E1
:100D600001900020E9F73197AF014E195F09B701F3
:100D70008EE891E00E94960042E050E062E371E06C
:100D80008EE891E00E94960064E371E0CE018C96BB
:100D90000E942A031BAA1AAA1DAA1CAA1FAA1EAADD
:100DA000BE01645D7F4FCE01C2960E940E0365E3D3
:100DB00071E0CE01C2960E94D40261E070E00E9410
:100DC0009E02BC01CE018C960E940E03CE01C296FB
:100DD0000E9425031AAA1BAA1CAA1DAA45E050E0DE
:100DE000BE016E5C7F4FCE018C960E943B09BE0116
:100DF0006E5C7F4FC7010E943C11892B09F050CFD8
:100E00001092840181E080937D0140E050E064E332
:100E100071E089E392E00E94ED02CE018C960E947F
:100E2000250345CF282E75CFEF92FF920F931F9386
:100E300081E090E090938C0180938B0180938401FA
:100E40000E94F90961E084E00E94970361E087E075
:100E50000E9497030E94DB0A909383018093820192
:100E6000E0908001F0908101609102017091030196
:100E700001E010E020E030E0AC01809100019091B1
:100E800001010E940F0560E084E00E94970360E08A
:100E900087E01F910F91FF90EF900C949703CF92F2
:100EA000DF92EF92FF920F931F930E94330B0E94E9
:100EB000010F70934901609348010E94EE0A0E945D
:100EC000010F70934701609346018CEDC82E85E0B9
:100ED000D82EE12CF12C20914801309149018091CC
:100EE0004601909147012115310529F5892B69F5B6
:100EF00084ECC81689E0D806E104F10431F1C70199
:100F0000B6010E941F040E94330B0E94010F7093D0
:100F10004901609348010E94EE0A0E94010F7093FC
:100F2000470160934601A89584EFC80E81E0D81E62
:100F3000E11CF11CD0CF009741F0309301012093C8
:100F4000000190930301809302010E94DB0A9093B9
:100F50008301809382018EE480937C0062E070E0E4
:100F600080E090E00E941F0480917A00806480936A
:100F70007A0080917A0086FDFCCF209178008091E4
:100F8000790030E0382B032E000C440B550B64EB3A
:100F90007BE281E190E00E944D0E3093810120932D
:100FA00080010091840110E0809182019091830181
:100FB0006091020170910301790120E030E0AC0101
:100FC00080910001909101010E940F051F910F91E6
:100FD000FF90EF90DF90CF9008958F929F92AF9205
:100FE000BF92CF92DF92EF92FF92CF93DF93A091C7
:100FF0005602882311F03A2F01C030E08091570249
:1010000090E0880F991F84569F4FC0905C02D0904B
:101010005D02E0905E02F0905F0240E050E0BA01B5
:10102000FC01C591D49128812A2323130FC04A01C2
:101030005B012FEF821A920AA20AB20A4C155D05D3
:101040006E057F0538F4B501A401EACF342F252FB2
:10105000CB0104C030E020E080E090E0632F722FED
:10106000DF91CF91FF90EF90DF90CF90BF90AF9046
:101070009F908F900895CF92DF92EF92FF920F93FF
:101080001F93CF93DF93CDB7DEB7C054D1400FB6D7
:10109000F894DEBF0FBECDBF2FB7F89480912B021E
:1010A00090912C02A0912D02B0912E022FBF409161
:1010B00058025091590260915A0270915B028C0162
:1010C0009D01041B150B260B370BB901A801403DF0
:1010D00057406105710518F480916002BCC080938F
:1010E000580290935902A0935A02B0935B02109257
:1010F000530210925202109251021092500210921A
:101100004F0261E0809154020E9497036AEF70E001
:1011100080E090E00E941F0461E0809154020E94F0
:10112000E30360E0809154020E94970364E170E061
:1011300080E090E00E941F04F89461E080915402E6
:101140000E9497038CE490E00197F1F762E08091B0
:1011500054020E94E30380E190E00197F1F780E000
:101160000E94ED07672B682B692B21F41092600217
:1011700078943EC081E00E94ED07672B682B692BB5
:10118000A9F38E010F5F1F4F6E012FEBC21A2EEFD6
:10119000D20A780180E00E94ED07F7016083718335
:1011A0008283938381E00E94ED07F7016483758356
:1011B00086839783F8E0EF0EF11CEC14FD0451F7E1
:1011C000789420E030E0F8014081518162817381A0
:1011D000C480D580E680F780411551056105710511
:1011E00029F0C114D104E104F10421F41092600249
:1011F00080E031C0F90183E0F595E7958A95E1F744
:10120000E15BFD4F8081880F4C155D056E057F0504
:1012100008F4816080832F5F3F4F085F1F4F2832A3
:10122000310589F62091530230E040914F028091C0
:10123000500290E0840F911D40915102840F911D46
:1012400040915202840F911D99272817390771F692
:1012500081E080936002C05CDE4F0FB6F894DEBF81
:101260000FBECDBFDF91CF911F910F91FF90EF90F7
:10127000DF90CF9008950F931F93CF93DF93FC01DE
:10128000248135812115310519F4FB01108211C02B
:10129000EA0121972C173D0708F4E9018B01FC01B5
:1012A00060817181AE01C8010E944C11C00FD11F35
:1012B0001882DF91CF911F910F9108959CB59F7D6A
:1012C0009CBD9CB5937F9CBD9CB59C7F9CBD9DB5F2
:1012D00091609DBD682F809140020E94970386E037
:1012E00090E00197F1F7089581E00C945E0980E0A9
:1012F0000C945E091F93CF93DF9300D0CDB7DEB778
:101300006A8389830E94770989818F7180620E9434
:101310000805182F6A81862F0E9408050E9474090B
:10132000812F0F900F90DF91CF911F910895CF9350
:10133000DF931F92CDB7DEB789830E947709898139
:101340008F710E9408058FEF0E94080589830E9413
:10135000740989810F90DF91CF910895CF93DF9326
:101360001F92CDB7DEB70E94770981EE0E94080573
:1013700089830E94740989810F90DF91CF9108952C
:10138000EF92FF920F931F93CF93DF9300D01F92A2
:10139000CDB7DEB7162F4A837B8389830E947709F6
:1013A00089818F7180620E940805082FE12E7B8160
:1013B000F72E4A81140F1E1531F0F70181917F013C
:1013C0000E940805F8CF0E947409802F0F900F909B
:1013D0000F90DF91CF911F910F91FF90EF900895A3
:1013E000682F80913F029091400289130C949703DB
:1013F000089580E00E94970981FD0EC080E00E9460
:101400009709682F626080E00E947A0965E070E0C9
:1014100080E090E00C941F040895DF92EF92FF9219
:101420000F931F93CF93DF931F92CDB7DEB7F82EA4
:1014300020914202E62E261708F4E22E8091430204
:10144000811103C0D22EDE1801C0D12C99830E94D5
:10145000770980EA0E9408050F2D9981192FFE0C4B
:10146000F01631F0F80181918F010E940805F8CF44
:10147000DD2029F080E00E940805DA94F9CF0E946F
:10148000740981E00E94F0090E9477098FEF0E94A1
:10149000080589830E94740989818073A9F380E01B
:1014A0000E94F00960E787E00E947A0984FF04C087
:1014B0000E94AE0980E001C081E00F90DF91CF91E2
:1014C0001F910F91FF90EF90DF90089580E00E94B0
:1014D000F00980914A0290914B028330910528F0E7
:1014E000880F991F04970197F1F78DE10E949709E2
:1014F00081FF0EC080914A0290914B02833091058A
:1015000028F0880F991F04970197F1F70E94AE0900
:1015100080E00E949709682F6E7F80E00E947A0920
:1015200082E00E949709E6EAF0E0E49161E070E071
:1015300001C0660FEA95EAF7682B82E00C947A09FD
:101540000F931F93CF93DF93CDB7DEB728970FB6D6
:10155000F894DEBF0FBECDBF87E7898385E38A831A
:1015600080EF8B8383ED8C8387EE8D831E821F82B9
:1015700018860FE312E0F8014285BE016F5F7F4FCE
:101580008AE00E94C009F8014285BE016F5F7F4F6B
:1015900080E10E94C009F801638181E10E947A091B
:1015A00028960FB6F894DEBF0FBECDBFDF91CF9166
:1015B0001F910F91089582E480937C0080917A00BE
:1015C000806480937A0080917A0086FDFCCF8091C0
:1015D00078002091790090E0922B0895CF92DF92CD
:1015E000EF92FF920E943B088823A1F1809155025F
:1015F0008B3041F178F18551823060F560914F0276
:1016000070E080E090E00E94901120E030E040E83F
:1016100053E40E94CD116B017C0180915002682F30
:1016200070E080E090E00E9492119B01AC01C70144
:10163000B6010E94950E2DEC3CEC4CEC5DE30E9453
:10164000CD110CC060914F0270E080E090E00E94EC
:10165000901104C060E070E080EC9FE7FF90EF9095
:10166000DF90CF900895CF92DF92EF92FF92CF93C9
:101670000E943B088823D1F1809155028B3029F0DC
:10168000A8F18551823048F031C06091510270E07C
:1016900080E090E00E9490112DC0C09151026C2F0B
:1016A0006F7770E080E090E00E94921120E030E0DF
:1016B00040E853E40E94CD116B017C0180915202FD
:1016C000682F70E080E090E00E9492119B01AC01D5
:1016D000C701B6010E94950E2DEC3CEC4CEC5DE38D
:1016E0000E94CD11C7FF06C0905804C060E070E0B2
:1016F00080EC9FE7CF91FF90EF90DF90CF9008951F
:10170000CF93DF93CDB7DEB76A970FB6F894DEBFFD
:101710000FBECDBF789484B5826084BD84B58160EE
:1017200084BD85B5826085BD85B5816085BD8091AC
:101730006E00816080936E00109281008091810024
:10174000826080938100809181008160809381001C
:10175000809180008160809380008091B1008460DE
:101760008093B1008091B00081608093B00080913F
:101770007A00846080937A0080917A0082608093FE
:101780007A0080917A008E7F80937A0080917A002F
:10179000806880937A001092C1000FB6F894A895E3
:1017A00080916000886180936000109260000FBE9D
:1017B00011E060E0812F0E94E3031F5F1231C9F73F
:1017C000E0919E01F0919F0182E08083E0919A0177
:1017D000F0919B011082E0919C01F0919D0187E6C0
:1017E00080831092A601E091A201F091A30186E00E
:1017F0008083E091A001F091A101808180618083CC
:10180000E091A001F091A101808188608083E09146
:10181000A001F091A101808180688083E091A00106
:10182000F091A10180818F7D808380913F02909112
:101830004002891719F061E00E94E30380914002A1
:1018400090913F02981719F061E00E94E3031FB7DF
:10185000F89480918A01811127C0E6EBF0E0849131
:10186000EAECF0E09491E82FF0E0EE0FFF1FEE5667
:10187000FF4FA591B491EC91E92321F461E08AE056
:101880000E94970361E08AE00E94E3038CB58061C7
:101890008CBD8CB580648CBD61E08DE00E94E3035B
:1018A00061E08BE00E94E30380918A018F5F809367
:1018B0008A011FBF80E00E94F00981E00E945E095A
:1018C00065E070E080E090E00E941F046CE080E042
:1018D0000E947A096FE584E00E947A0982E090E034
:1018E0000E94FF01882319F081E08093410280E08B
:1018F00090E00E94FF010E94770980E50E940805A0
:1019000083E70E9408050E94740960E08DE10E944F
:101910007A0960E08CE10E947A0960E787E00E9422
:101920007A096CE485E00E947A090E94770982EEC8
:101930000E9408050E9474090E94AE090E94F909DC
:1019400080E00E949709682F6E7F80E00E947A09EC
:1019500086E00E949709682F676086E00E947A09F6
:1019600060E085E00E947A0982E090E00E94FF0139
:101970006FE284E00E947A090E94A00A0E94660A2F
:1019800060E083E00E94E30361E085E00E94E303FE
:1019900061E084E00E94E30361E087E00E94E303EA
:1019A00061E084E00E94970361E087E00E94970372
:1019B00064E670E080E090E00E941F0460E087E051
:1019C0000E94970364E670E080E090E00E941F04AC
:1019D00061E087E00E94970364E670E080E090E0B9
:1019E0000E941F0460E087E00E94970364E371E0B7
:1019F000CE0145960E942A031A8219821C821B82FC
:101A00001E821D82BE016B5E7F4FCE0101960E9439
:101A10000E0369E371E0CE0101960E94D40261E0F9
:101A200070E00E949E026FE371E00E94D402BC014C
:101A3000CE0145960E940E03CE0101960E94250319
:101A40004CE050E0BE016F5F7F4FCE0145960E9493
:101A50003B096DE0CE0101960E940D0A6DE0CE01BA
:101A600001960E940D0A6DE0CE0101960E940D0ABA
:101A700062E0809154020E94E30380E398EFAFEFAD
:101A8000BFEF8093580290935902A0935A02B093EB
:101A90005B026CEB72E080E090E00E941F0499E230
:101AA00088E10FB6F894A895809360000FBE9093DC
:101AB0006000A8950E944F0784E197E0909307018A
:101AC00080930601809169008C6080936900E99A97
:101AD000CE0145960E94250388E1F82E99E2E92E71
:101AE00020E3822E28EF922EAA24AA94BA2C80E01A
:101AF0000E94F00980E00E949709682F6D7F80E0C6
:101B00000E947A090AE010E00FB6F894A895809137
:101B10006000886180936000109260000FBE20E03A
:101B200030E040E050E069E070E08DE891E00E9434
:101B3000B3010FB6F894A895F09260000FBEE09242
:101B40006000A89501501109F9F680918B019091E0
:101B50008C01892BD9F40E94F90961E084E00E948C
:101B6000970362E0809154020E94E303809258023E
:101B700090925902A0925A02B0925B026CEB72E012
:101B800080E090E00E941F040E944F0710928C0199
:101B900010928B010E948301AACF83E392E00E94FE
:101BA000250389E392E00C942503EEE8F1E013822B
:101BB000128288EE93E0A0E0B0E084839583A68350
:101BC000B78382E191E09183808385EC90E09587F3
:101BD000848784EC90E09787868780EC90E0918BF7
:101BE000808B81EC90E0938B828B82EC90E0958BE4
:101BF000848B86EC90E0978B868B118E128E138EE1
:101C0000148EAFE4B2E085E015968C93159796E1BB
:101C100016969C931697E5ECF0E0E4911796EC93FA
:101C20001797E1EBF0E0E4911896EC93189740E4F5
:101C30005FE160E070E01D964D935D936D937C9342
:101C40005097EFE3F2E099E090839AE0918312825B
:101C500090E2938314828287158264E371E089E3C2
:101C600092E00E942A0364E371E083E392E00E9421
:101C70002A032FB7F89480912B0290912C02A09107
:101C80002D02B0912E022FBF80932F02909330022D
:101C9000A0933102B09332020895052E97FB1EF4F3
:101CA00000940E94640E57FD07D00E946C0E07FC42
:101CB00003D04EF40C94640E5095409530952195C8
:101CC0003F4F4F4F5F4F0895909580957095619568
:101CD0007F4F8F4F9F4F0895A1E21A2EAA1BBB1B67
:101CE000FD010DC0AA1FBB1FEE1FFF1FA217B307E8
:101CF000E407F50720F0A21BB30BE40BF50B661FFE
:101D0000771F881F991F1A9469F7609570958095C1
:101D100090959B01AC01BD01CF010895EE0FFF1F0F
:101D20000590F491E02D09945058BB27AA270E94F2
:101D3000AC0E0C9451120E94431238F00E944A12C9
:101D400020F039F49F3F19F426F40C9440120EF45D
:101D5000E095E7FB0C943A12E92F0E94621258F3C7
:101D6000BA17620773078407950720F079F4A6F580
:101D70000C9484120EF4E0950B2EBA2FA02D0B01BB
:101D8000B90190010C01CA01A0011124FF27591BC0
:101D900099F0593F50F4503E68F11A16F040A22FC6
:101DA000232F342F4427585FF3CF46953795279537
:101DB000A795F0405395C9F77EF41F16BA0B620B36
:101DC000730B840BBAF09150A1F0FF0FBB1F661F7D
:101DD000771F881FC2F70EC0BA0F621F731F841FC0
:101DE00048F4879577956795B795F7959E3F08F0E6
:101DF000B0CF9395880F08F09927EE0F97958795A8
:101E000008950E94080F6894B1110C9485120895EA
:101E10000E946A1288F09F5798F0B92F9927B751FE
:101E2000B0F0E1F0660F771F881F991F1AF0BA957E
:101E3000C9F714C0B13091F00E948412B1E0089546
:101E40000C948412672F782F8827B85F39F0B93F38
:101E5000CCF3869577956795B395D9F73EF4909531
:101E60008095709561957F4F8F4F9F4F0895CF93C9
:101E7000DF938230910510F482E090E0E0916302FC
:101E8000F091640220E030E0C0E0D0E0309711F142
:101E90004081518148175907C0F04817590761F42C
:101EA00082819381209719F09B838A832BC0909322
:101EB00064028093630226C02115310519F0421790
:101EC000530718F49A01BE01DF01EF010280F3818C
:101ED000E02DDCCF2115310509F1281B390B243009
:101EE000310590F412968D919C91139761157105AF
:101EF00021F0FB019383828304C09093640280935A
:101F00006302FD01329644C0FD01E20FF31F81938D
:101F10009193225031092D933C933AC02091610254
:101F200030916202232B41F420910A0130910B0180
:101F300030936202209361022091080130910901DF
:101F40002115310541F42DB73EB740910C01509158
:101F50000D01241B350BE0916102F0916202E21742
:101F6000F307A0F42E1B3F0B2817390778F0AC01BC
:101F70004E5F5F4F2417350748F04E0F5F1F509399
:101F80006202409361028193919302C0E0E0F0E02D
:101F9000CF01DF91CF9108950F931F93CF93DF93DC
:101FA000009709F48CC0FC013297138212820091D1
:101FB0006302109164020115110581F420813181C1
:101FC000820F931F20916102309162022817390716
:101FD00079F5F0936202E093610271C0D80140E0AC
:101FE00050E0AE17BF0750F412962D913C91139715
:101FF000AD012115310509F1D901F3CF9D01DA01B8
:102000003383228360817181860F971F8217930724
:1020100069F4EC0128813981260F371F2E5F3F4F6D
:10202000318320838A819B8193838283452B29F48A
:10203000F0936402E093630242C01396FC93EE9324
:102040001297ED01499159919E01240F351FE21716
:10205000F30771F480819181840F951F0296119688
:102060009C938E938281938113969C938E93129767
:10207000E0E0F0E0D80112968D919C9113970097C3
:1020800019F0F8018C01F6CF8D919C9198012E5F8B
:102090003F4F820F931F20916102309162022817F7
:1020A000390769F4309729F41092640210926302A0
:1020B00002C0138212821093620200936102DF91C8
:1020C000CF911F910F910895A0E0B0E0EAE6F0E112
:1020D0000C948F12EC01009721F4CB010E94370F72
:1020E000B8C0FC01E60FF71F9C0122503109E2172E
:1020F000F30708F4ACC0D9010D911C911197061794
:102100001707B0F00530110508F49FC0C801049707
:102110008617970708F499C002501109061B170B80
:10212000019311936D937C93CF010E94CC0F8DC0CE
:102130005B01A01AB10A4C01800E911EA0916302AE
:10214000B091640240E050E0E12CF12C109709F4CA
:102150004AC0A815B905D1F56D907C90119763011F
:1021600082E0C80ED11CCA14DB0480F1A3014A1915
:102170005B096A0182E0C80ED11C1296BC901297CE
:102180001396AC91B5E0CB16D10440F0B282A38394
:1021900051834083D9016D937C930AC00E5F1F4F1A
:1021A000C301800F911FF90191838083EB2DFA2FDA
:1021B000E114F10431F0D7011396FC93EE931297DA
:1021C00044C0F0936402E09363023FC08D919C9100
:1021D00011974817590708F4AC017D0112960D902C
:1021E000BC91A02DB3CF80916102909162028815BD
:1021F0009905E1F446175707C8F4809108019091BA
:102200000901009741F48DB79EB740910C015091A0
:102210000D01841B950BE817F907C8F4F0936202CF
:10222000E0936102F901718360830FC0CB010E94CA
:10223000370F7C01009759F0A801BE010E943311AD
:10224000CE010E94CC0FC70104C0CE0102C080E0C5
:1022500090E0CDB7DEB7EEE00C94AB1281E090E0F9
:10226000F8940C94C212FB01DC0102C001900D92A3
:1022700041505040D8F70895FB01DC018D91019049
:1022800080190110D9F3990B0895FB01DC0101902D
:102290000D920020E1F70895FB01DC014150504010
:1022A00048F001900D920020C9F701C01D924150E5
:1022B0005040E0F70895BB274A3031F4992322F4C7
:1022C000BDE2909581959F4F0C946711BB27FB0150
:1022D0005527AA27880F991FAA1FA41710F0A41B1F
:1022E00083955051B9F7A05DAA3308F0A95DA19379
:1022F000009779F7B111B1931192CB010C94801131
:10230000DC01FC01672F71917723E1F7329704C05C
:102310007C916D9370836291AE17BF07C8F30895E7
:10232000E89409C097FB3EF490958095709561956F
:102330007F4F8F4F9F4F9923A9F0F92F96E9BB2725
:102340009395F695879577956795B795F111F8CFA1
:10235000FAF4BB0F11F460FF1BC06F5F7F4F8F4F0C
:102360009F4F16C0882311F096E911C0772321F002
:102370009EE8872F762F05C0662371F096E8862F9A
:1023800070E060E02AF09A95660F771F881FDAF7F1
:10239000880F9695879597F908950E94E0110C94FF
:1023A00051120E94431238F00E944A1220F09523E5
:1023B00011F00C943A120C94401211240C948512D2
:1023C0000E94621270F3959FC1F3950F50E0551F64
:1023D000629FF001729FBB27F00DB11D639FAA277A
:1023E000F00DB11DAA1F649F6627B00DA11D661FC9
:1023F000829F2227B00DA11D621F739FB00DA11DEA
:10240000621F839FA00D611D221F749F3327A00DA3
:10241000611D231F849F600D211D822F762F6A2F3F
:1024200011249F5750409AF0F1F088234AF0EE0FA4
:10243000FF1FBB1F661F771F881F91505040A9F7D1
:102440009E3F510580F00C943A120C9485125F3F28
:10245000E4F3983ED4F3869577956795B795F7950D
:10246000E7959F5FC1F7FE2B880F911D9695879585
:1024700097F9089597F99F6780E870E060E0089504
:102480009FEF80EC089500240A941616170618068C
:102490000906089500240A94121613061406050668
:1024A0000895092E0394000C11F4882352F0BB0FF9
:1024B00040F4BF2B11F460FF04C06F5F7F4F8F4F5C
:1024C0009F4F089557FD9058440F551F59F05F3F97
:1024D00071F04795880F97FB991F61F09F3F79F046
:1024E00087950895121613061406551FF2CF4695C8
:1024F000F1DF08C0161617061806991FF1CF86954A
:102500007105610508940895E894BB27662777272D
:10251000CB0197F908952F923F924F925F926F925D
:102520007F928F929F92AF92BF92CF92DF92EF9263
:10253000FF920F931F93CF93DF93CDB7DEB7CA1BE4
:10254000DB0B0FB6F894DEBF0FBECDBF09942A880F
:10255000398848885F846E847D848C849B84AA84B7
:10256000B984C884DF80EE80FD800C811B81AA8144
:10257000B981CE0FD11D0FB6F894DEBF0FBECDBF0F
:10258000ED01089510E0CBE6D0E004C0FE010E940A
:0E2590008E0E2196CC36D107C9F7F894FFCFF6
:10259E001A001200B201B2010000650280000000B4
:1025AE0000001A019600E300C100D50061012C74F1
:1025BE0031002C6831002C6C31002C6D31002C0058
:1025CE002E000D0A0061636B006E6F6465200020A3
:0625DE0074657374000037
:00000001FF
