:100000000C942B010C9453010C9453010C94530148
:100010000C9453010C9453010C9453010C94530110
:100020000C9453010C9453010C9453010C94530100
:100030000C9453010C9453010C9453010C945301F0
:100040000C949D030C9453010C94E5020C94BF0294
:100050000C9453010C9453010C9453010C945301D0
:100060000C9453010C94530150415F4D4158005082
:10007000415F484947480050415F4C4F570050414D
:100080005F4D494E0031362062697473003820623A
:100090006974730044697361626C6564006E5246F2
:1000A00032344C30312B006E524632344C303100F9
:1000B0003235304B42505300324D42505300314D97
:1000C0004250530000000008000201000003040732
:1000D000000000000000000053544154555309092A
:1000E000203D203078253032782052585F44523DF0
:1000F00025782054585F44533D2578204D41585F62
:1001000052543D25782052585F505F4E4F3D257820
:100110002054585F46554C4C3D25780D0A005041FF
:1001200020506F77657209203D2025530D0A007E0F
:100130000077006F006800435243204C656E67747F
:100140006809203D2025530D0A0094008D0085008C
:100150004D6F64656C0909203D2025530D0A00A7E9
:10016000009D0044617461205261746509203D2046
:1001700025530D0A00BE00B800B00044594E50444B
:100180002F4645415455524500434F4E4649470975
:100190000052465F53455455500052465F4348094C
:1001A00000454E5F52584144445200454E5F414124
:1001B000090052585F50575F50302D360054585F39
:1001C00041444452090052585F414444525F503206
:1001D0002D350052585F414444525F50302D31005C
:1001E0001112131415160A0B0C0D0E0F0D0A002513
:1001F0003032780020307800255309203D000D0A68
:10020000002030782530327800255309203D000049
:10021000010203040500000000250028002B000057
:10022000000000240027002A00040404040404043D
:100230000402020202020203030303030301020495
:100240000810204080010204081020010204081058
:100250002000080B020B11241FBECFEFD8E0DEBF39
:10026000CDBF11E0A0E0B1E0E2E1F3E202C0059011
:100270000D92A632B107D9F721E0A6E2B1E001C0A4
:100280001D92AF3FB207E1F711E0CAE2D1E004C02E
:100290002197FE010E94C20BC932D107C9F70E9403
:1002A0009E060C947C110C940000CF92DF92EF928A
:1002B000FF920F931F93CF93DF936C017A018B0111
:1002C000C0E0D0E0CE15DF0589F0D8016D918D0139
:1002D000D601ED91FC910190F081E02DC6010995C8
:1002E000892B11F47E0102C02196ECCFC701DF916A
:1002F000CF911F910F91FF90EF90DF90CF900895D5
:10030000FC01918D828D981761F0828DDF01A80F1D
:10031000B11D5D968C91928D9F5F9F73928F90E03F
:1003200008958FEF9FEF0895FC01918D828D9817AE
:1003300031F0828DE80FF11D858D90E008958FEFEB
:100340009FEF0895FC01918D228D892F90E0805CB4
:100350009F4F821B91098F739927089580E391E045
:100360000E94A20121E0892B09F420E0822F089548
:10037000FC01848DDF01A80FB11DA35ABF4F2C9142
:10038000848D90E001968F739927848FA689B78911
:100390002C93A089B1898C9180648C93938D848DEA
:1003A000981306C00288F389E02D80818F7D8083B9
:1003B0000895EF92FF920F931F93CF93DF93EC0179
:1003C00081E0888F9B8D8C8D981305C0E889F98911
:1003D000808185FD24C0F62E0B8D10E00F5F1F4F2E
:1003E0000F731127E02E8C8DE8120CC00FB607FC9E
:1003F000FACFE889F989808185FFF5CFCE010E9487
:10040000B801F1CF8B8DFE01E80FF11DE35AFF4FCC
:10041000F0820B8FEA89FB898081806207C0EE89B8
:10042000FF896083E889F98980818064808381E025
:1004300090E0DF91CF911F910F91FF90EF90089581
:10044000CF93DF93EC01888D8823C9F0EA89FB897B
:10045000808185FD05C0A889B9898C9186FD0FC072
:100460000FB607FCF5CF808185FFF2CFA889B98947
:100470008C9185FFEDCFCE010E94B801E7CFDF91CF
:10048000CF91089580E090E0892B29F00E94AE0181
:1004900081110C94000008953FB7F89480912B01CE
:1004A00090912C01A0912D01B0912E0126B5A89B11
:1004B00005C02F3F19F00196A11DB11D3FBFBA2FF6
:1004C000A92F982F8827820F911DA11DB11DBC0156
:1004D000CD0142E0660F771F881F991F4A95D1F71B
:1004E0000895CF93C82F682F80E391E00E94D9012F
:1004F0008C2FCC0F990BCF9108950E94920CEF9204
:10050000FF920F931F93CF93DF93EC017B018A013E
:1005100088819981009729F02A813B81241735072A
:10052000F8F4B8016F5F7F4F0E94C80B009759F035
:10053000998388831B830A832C813D81232B81F43B
:10054000FC0110820DC088819981009711F00E94F2
:10055000FA0F198218821D821C821B821A8207C020
:100560001D830C83B701888199810E94A00CCE0164
:10057000DF91CF911F910F91FF90EF9008951F92FF
:100580000F920FB60F9211242F933F934F935F93C7
:100590006F937F938F939F93AF93BF93EF93FF934B
:1005A00080E391E00E94B801FF91EF91BF91AF917C
:1005B0009F918F917F916F915F914F913F912F917B
:1005C0000F900FBE0F901F9018951F920F920FB6AD
:1005D0000F9211242F938F939F93EF93FF93E091AA
:1005E0004001F09141018081E0914601F091470185
:1005F00082FD12C09081809149018F5F8F7320919D
:100600004A01821751F0E0914901F0E0E05DFE4FB0
:10061000958F8093490101C08081FF91EF919F9157
:100620008F912F910F900FBE0F901F90189590E013
:10063000FC01EC53FF4F3491FC01E35CFD4F24912E
:10064000FC01E75DFD4FE491EE2309F43BC0332349
:1006500039F1333091F038F43130A9F0323001F50E
:1006600084B58F7D12C0373091F03830A1F034302E
:10067000B9F4809180008F7D03C0809180008F77D6
:10068000809380000DC084B58F7784BD09C08091B0
:10069000B0008F7703C08091B0008F7D8093B00051
:1006A000F0E0EE0FFF1FEB5EFD4FA591B4918FB709
:1006B000F894EC91611103C020952E2301C02E2BDC
:1006C0002C938FBF08958F929F92AF92BF92CF923B
:1006D000DF92EF92FF926B017C010E944C024B0172
:1006E0005C01C114D104E104F104F1F00E944C0258
:1006F000DC01CB0188199909AA09BB09883E9340FE
:10070000A105B10570F321E0C21AD108E108F10892
:1007100088EE880E83E0981EA11CB11CC114D10480
:10072000E104F10419F7DDCFFF90EF90DF90CF9057
:10073000BF90AF909F908F9008951F920F920FB629
:100740000F9211242F933F938F939F93AF93BF9357
:100750008091270190912801A0912901B0912A014F
:100760003091260123E0230F2D3720F40196A11D9F
:10077000B11D05C026E8230F0296A11DB11D2093CF
:1007800026018093270190932801A0932901B0931B
:100790002A0180912B0190912C01A0912D01B09103
:1007A0002E010196A11DB11D80932B0190932C0168
:1007B000A0932D01B0932E01BF91AF919F918F9186
:1007C0003F912F910F900FBE0F901F9018958EBDE7
:1007D00000000DB407FEFDCF8EB5089590E0FC013A
:1007E000E35CFD4F2491FC01E75DFD4F849188237C
:1007F00099F090E0880F991FFC01E15EFD4FA591F3
:10080000B491FC01EB5EFD4F859194918FB7F89404
:10081000EC91E22BEC938FBF08959CB59F7D9CBD1E
:100820009CB5937F9CBD9CB59C7F9CBD9DB5916004
:100830009DBD682F8091E6010E9417038FE090E034
:100840000197F1F7089581E00C940D0480E00C9479
:100850000D04CF93DF931F92CDB7DEB789830E943B
:10086000260489810E94E70389830E9423048981E9
:100870000F90DF91CF91089581EE0C9429041F937E
:10088000CF93DF9300D0CDB7DEB76A8389830E9410
:10089000260489818F7180620E94E703182F6A8184
:1008A000862F0E94E7030E942304812F0F900F9050
:1008B000DF91CF911F910895682F8091E50190916C
:1008C000E60189130C9417030895DF92EF92FF92CB
:1008D0000F931F93CF93DF931F92CDB7DEB7F82E00
:1008E0002091E801D62E261708F4D22E8091E90136
:1008F000811103C0E22EED1801C0E12C99830E9402
:10090000260480EA0E94E7030F2D9981192FFD0C20
:10091000F01631F0F80181918F010E94E703F8CFC2
:10092000EE2029F080E00E94E703EA94F9CF0E94CC
:10093000230481E00E945C048FEF0E9429048073ED
:10094000D9F380E00E945C0460E787E00E943F04E6
:1009500084FF04C00E943C0480E001C081E00F904D
:10096000DF91CF911F910F91FF90EF90DF9008954D
:10097000CF93DF931F92CDB7DEB789830E94260401
:1009800089818F710E94E7038FEF0E94E7038983BB
:100990000E94230489810F90DF91CF91089580E018
:1009A0000E945C048091F0019091F10182309105E8
:1009B00038F0880F991F880F991F05970197F1F755
:1009C0008DE10E94B80481FF10C08091F0019091E8
:1009D000F1018230910538F0880F991F880F991F17
:1009E00005970197F1F70E943C0480E00E94B8044B
:1009F000682F6E7F80E00E943F0482E00E94B8046E
:100A0000EFE0F2E0E49161E070E001C0660FEA958A
:100A1000EAF7682B82E00C943F04EF92FF920F9369
:100A20001F93CF93DF9300D01F92CDB7DEB7162F61
:100A30004A837B8389830E94260489818F71806227
:100A40000E94E703082FE12E7B81F72E4A81140FC5
:100A50001E1531F0F70181917F010E94E703F8CF65
:100A60000E942304802F0F900F900F90DF91CF9161
:100A70001F910F91FF90EF9008950F931F93CF93C5
:100A8000DF93CDB7DEB728970FB6F894DEBF0FBE61
:100A9000CDBF87EC898382EC8A838B838C838D83A3
:100AA0001E821F82188605EE11E0F8014285BE0104
:100AB0006F5F7F4F8AE00E940D05F8014285BE01FD
:100AC0006F5F7F4F80E10E940D05F801638181E136
:100AD0000E943F0428960FB6F894DEBF0FBECDBF2C
:100AE000DF91CF911F910F91089580E00E94B8048B
:100AF00081FD0EC080E00E94B804682F626080E033
:100B00000E943F0465E070E080E090E00C94630395
:100B10000895EF92FF920F931F93CF93DF931F924D
:100B2000CDB7DEB7E42E9F938F9389E092E09F9339
:100B30008F9369830E94510D6981E60E0F900F908B
:100B40000F900F9001E012E06E1591F0FF24F394E6
:100B5000F60E862F0E94B8041F928F931F930F9357
:100B60000E94510D0F900F900F900F906F2DECCFB2
:100B70008EEF91E09F938F930E94510D0F900F90F5
:100B80000F90DF91CF911F910F91FF90EF900895FB
:100B90002F923F924F925F926F927F928F929F928D
:100BA000AF92BF92CF92DF92EF92FF920F931F937B
:100BB000CF93DF931F92CDB7DEB7562E342E6DB68E
:100BC0007EB69F938F9388EF91E09F938F930E94BF
:100BD000510D350C0F900F900F900F9084EFC82E91
:100BE00081E0D82E9FEEA92E91E0B92E531409F47E
:100BF0004EC08DB69EB69091EF01092F10E02DB733
:100C00003EB7201B310B0FB6F8943EBF0FBE2DBF71
:100C1000EDB7FEB731967F0122242394250C9983EA
:100C20000E942604852D8F710E94E7032701998178
:100C30009E0D941549F08FEF99830E94E703F2010E
:100C400081932F019981F5CF0E942304DF92CF92E7
:100C50000E94510D0E0D1F1D0F900F900150110994
:100C60000E151F0568F0F80180811F928F93BF92C7
:100C7000AF920E94510D0F900F900F900F90EECFFA
:100C80000FB6F8949EBE0FBE8DBE522CAFCF8CEE29
:100C900091E09F938F930E94510D0F900F900FB68C
:100CA000F8947EBE0FBE6DBE0F90DF91CF911F9165
:100CB0000F91FF90EF90DF90CF90BF90AF909F90FB
:100CC0008F907F906F905F904F903F902F900895FE
:100CD0000F931F93CF938C0186E00E94B804C82F16
:100CE000C77D0230110531F4C0628BE990E0A0E0CD
:100CF000B0E00DC00130110529F085E590E0A0E0DD
:100D0000B0E005C0C86081E490E0A0E0B0E080936E
:100D1000F0019093F101A093F201B093F3016C2FD5
:100D200086E00E943F0486E00E94B80491E08C13A4
:100D300090E0892FCF911F910F910895CF93DF936A
:100D4000CDB7DEB7E2970FB6F894DEBF0FBECDBFCA
:100D5000789484B5826084BD84B5816084BD85B596
:100D6000826085BD85B5816085BD80916E008160A2
:100D700080936E0010928100809181008260809348
:100D8000810080918100816080938100809180004A
:100D90008160809380008091B10084608093B10075
:100DA0008091B00081608093B00080917A0084606F
:100DB00080937A0080917A00826080937A0080919B
:100DC0007A00816080937A0080917A0080688093B5
:100DD0007A001092C100E0914001F091410182E05F
:100DE0008083E0913C01F0913D011082E0913E0151
:100DF000F0913F018FEC808310924801E091440113
:100E0000F091450186E08083E0914201F091430139
:100E1000808180618083E0914201F0914301808173
:100E200088608083E0914201F09143018081806875
:100E30008083E0914201F091430180818F7D808326
:100E400060E070E081E792E00E94060D8091E5018C
:100E50009091E60189130E94EE038091E601909142
:100E6000E50198130E94EE031FB7F89480912F01BB
:100E7000811124C0E3E3F2E08491E7E4F2E094918D
:100E8000E82FF0E0EE0FFF1FE15EFD4FA591B4915A
:100E9000EC91E92321F461E08AE00E9417038AE0E3
:100EA0000E94EE038CB580618CBD8CB580648CBDD6
:100EB0008DE00E94EE038BE00E94EE0380912F01F3
:100EC0008F5F80932F011FBF80E00E945C0481E050
:100ED0000E940D0465E070E080E090E00E946303F2
:100EE0006CE080E00E943F046FE584E00E943F04D4
:100EF00082E090E00E946806882319F081E08093E8
:100F0000E70180E090E00E9468060E94260480E5E8
:100F10000E94E70383E70E94E7030E94230460E046
:100F20008DE10E943F0460E08CE10E943F0460E795
:100F300087E00E943F046CE485E00E943F0482EE5B
:100F40000E9429040E943C040E94750580E00E94D2
:100F5000B804682F6E7F80E00E943F0460E081E06B
:100F60000E943F0486E00E94B804682F676086E014
:100F70000E943F046BE485E00E943F0482E090E021
:100F80000E9468068FEF0E942904282F30E0982FD6
:100F900091701F929F9335952795277033273F9324
:100FA0002F9384FB992790F91F929F9385FB992794
:100FB00090F91F929F9386FB992790F91F929F9318
:100FC0001F928F9388ED90E09F938F930E94510D15
:100FD00042E06AE083ED91E00E94C80544E06CE0E5
:100FE00086EC91E00E94890541E060E18DEB91E0A3
:100FF0000E94C80546E061E182EB91E00E9489050C
:1010000041E061E08BEA91E00E94890541E062E005
:1010100081EA91E00E94890541E065E08AE991E07A
:101020000E94890541E066E081E991E00E9489051E
:1010300041E060E089E891E00E94890542E06CE1CE
:101040008BE791E00E94890586E00E94B8048872CF
:101050000FB6F894DEBF0FBECDBF803241F021E065
:1010600090E0883009F020E0E22FF92F02C0E2E0A2
:10107000F0E0EE0FFF1FEB58FE4F859194919F9388
:101080008F9383E691E09F938F930E94510DE0919F
:10109000E701F0E0EE0FFF1FE15AFE4F85919491BA
:1010A0009F938F9380E591E09F938F930E94510DC2
:1010B00080E00E94B804182F81E00E94B8040FB6A7
:1010C000F894DEBF0FBECDBF13FD02C0882329F008
:1010D00012FD06C0E1E0F0E005C0E0E0F0E002C093
:1010E000E2E0F0E0EE0FFF1FE65BFE4F859194918A
:1010F0009F938F9387E391E09F938F930E94510D6D
:1011000086E00E94B8048670E82FF0E0E15DFE4FB3
:10111000859194919F938F938EE191E09F938F930C
:101120000E94510D0E943D050E94CF0484E00E9460
:10113000EE0369E086E191E00E94650469E086E1E2
:1011400091E00E94650469E086E191E00E946504F7
:1011500069E086E191E00E94650461E084E00E941C
:1011600017036AEF70E080E090E00E94630360E0A4
:1011700084E00E9417030FB6F894DEBF0FBECDBF08
:1011800022242394312C9E012F5F3F4F79014E0181
:1011900039E2830E911C6E018FE2C80ED11C0E94B1
:1011A000750580E00E94B804682F616080E00E94AD
:1011B0003F0460E787E00E943F0481E00E945C04F6
:1011C0008091EA01882341F04091EF016AEE71E0DD
:1011D0008AE00E940D0510C082E00E94B804EFE092
:1011E000F2E09491B10101C0660F9A95EAF760951B
:1011F000682382E00E943F048DE10E94B80481FDD3
:101200000E943C0487EC89A382EC8AA38BA38CA365
:101210008DA31EA21FA218A64091EF0150E0BE01AF
:101220006F5D7F4F8AEE91E00E94970CE6EEF1E051
:1012300084914091EF01BE016F5D7F4F0E940D05CB
:10124000E0EEF1E084916091E8010E943F0482E0C9
:101250000E94B804EFE0F2E09491910101C0220FE6
:101260009A95EAF7682F622B82E00E943F0487E19B
:101270000E94B80480FF1BC017C00E94230460E7CF
:1012800087E00E943F04F70101900020E9F73197C1
:10129000AF014E195F09B70180E391E00E9455014B
:1012A0008981803409F450C00E94420278CF88E0DE
:1012B000F70111928A95E9F71AA619A683E089A782
:1012C0009F928F92AFE1B1E0BF93AF93FF92EF9205
:1012D0000E94A70C0E943D050E94CF048BE193E081
:1012E0000197F1F764E0C7010E94650480E2D7012D
:1012F0001D928A95E9F71091E8010F900F900F90D9
:101300000F900F900F90103220F100E28091E901D0
:10131000811102C0101B01C010E00E94260481E66A
:101320000E94E7035701015038F08FEF0E94E70356
:10133000D5018D935D01F7CF112309F49ECF8FEF77
:101340000E94E7031150F8CF8A81833309F0ACCFB4
:1013500002C0012FDBCF8D811AA619A61CA61BA6E1
:101360001EA61DA68FA718AAF60101900020E9F776
:101370003197AF014C195D09B601C4010E947F028B
:1013800009A51AA50115110509F438C1C8010E9463
:10139000CA0C7093D4016093D301C8010E94FA0F64
:1013A0008E818FA78F8188AB888589AB89858AAB31
:1013B0001AA619A61CA61BA61EA61DA6F60101901C
:1013C0000020E9F73197AF014C195D09B601C4015E
:1013D0000E947F0209A51AA50115110531F0C80167
:1013E0000E94CA0C2B013C0103C0412C512C32013C
:1013F000C8010E94FA0F0091D3011091D40161E05D
:1014000084E0141415040CF078C00E941703609156
:10141000E3017091E401C2010E949A0B88EE93E00F
:10142000689F5001699FB00C789FB00C1124023066
:101430001105F1F0B4F40130110509F0DAC061E0F2
:101440008091D5010E941703B5010B2C000C880B6D
:10145000990B0E94630360E08091D5010E941703FD
:1014600007C003301105A9F00430110519F1C1C0FE
:1014700061E08091D9010E941703B5010B2C000C8B
:10148000880B990B0E94630360E08091D9010E9450
:10149000170361E08091DD010E941703B5010B2C59
:1014A000000C880B990B0E94630360E08091DD01C2
:1014B0000E94170361E08091D5010E94170361E04B
:1014C0008091D9010E94170361E08091DD010E94A3
:1014D0001703B501BB0C880B990B0E94630360E0F6
:1014E0008091D5010E94170360E08091D9010E948C
:1014F000170360E08091DD017AC00E9417038827FE
:101500009927841995096091E3017091E4010E9483
:101510009A0B88EE93E0689F5001699FB00C789F0A
:10152000B00C112402301105F1F0B4F401301105B2
:1015300009F05FC061E08091D7010E941703B501F7
:101540000B2C000C880B990B0E94630360E08091C8
:10155000D7010E94170307C003301105A9F004301A
:10156000110519F146C061E08091DB010E9417036B
:10157000B5010B2C000C880B990B0E94630360E0F3
:101580008091DB010E94170361E08091DF010E94DE
:101590001703B5010B2C000C880B990B0E946303F9
:1015A00060E08091DF010E94170361E08091D70124
:1015B0000E94170361E08091DB010E94170361E044
:1015C0008091DF010E941703B501BB0C880B990BBA
:1015D0000E94630360E08091D7010E94170360E0DE
:1015E0008091DB010E94170360E08091DF010E947F
:1015F000170360E084E00E94170356CE60E070E0BD
:10160000CB01C7CE8091CD019091CE010C94FA0F01
:10161000CF93DF93E0E3F1E01382128288EE93E050
:10162000A0E0B0E084839583A683B7838AE091E04D
:101630009183808385EC90E09587848784EC90E0AB
:101640009787868780EC90E0918B808B81EC90E08F
:10165000938B828B82EC90E0958B848B86EC90E070
:10166000978B868B118E128E138E148EE5EEF1E021
:1016700089E080838AE08183128280E283831482FE
:1016800085E082871582C3EDD1E085E090E09B8301
:101690008A8386E090E09D838C8387E090E09F833F
:1016A0008E8388E090E09987888780E190E09B872F
:1016B0008A8781E190E09D878C878AE090E0998B12
:1016C000888B81E090E09F878E8785E00E94EE0303
:1016D0008C810E94EE038A810E94EE038C810E941D
:1016E000EE038E810E94EE0388850E94EE038A81BC
:1016F0000E94EE038C810E94EE038E810E94EE0315
:1017000088850E94EE038A850E94EE038C850E94E4
:10171000EE03EDECF1E01182108213821282158249
:10172000148240E050E06EE171E0CF01DF91CF9193
:101730000C947F0297FB072E16F4009407D077FDD8
:1017400009D00E94AE0B07FC05D03EF49095819520
:101750009F4F0895709561957F4F0895AA1BBB1BFD
:1017600051E107C0AA1FBB1FA617B70710F0A61BA1
:10177000B70B881F991F5A95A9F780959095BC01C2
:10178000CD010895EE0FFF1F0590F491E02D09940F
:10179000A0E0B0E0EEECFBE00C944911EC01009706
:1017A00021F4CB010E94650FB8C0FC01E60FF71FC2
:1017B0009C0122503109E217F30708F4ACC0D901AB
:1017C0000D911C91119706171707B0F00530110500
:1017D00008F49FC0C80104978617970708F499C0BA
:1017E00002501109061B170B019311936D937C9303
:1017F000CF010E94FA0F8DC05B01A01AB10A4C0103
:10180000800E911EA091FD01B091FE0140E050E0DC
:10181000E12CF12C109709F44AC0A815B905D1F5AF
:101820006D907C901197630182E0C80ED11CCA14A0
:10183000DB0480F1A3014A195B096A0182E0C80E4A
:10184000D11C1296BC9012971396AC91B5E0CB16B2
:10185000D10440F0B282A38351834083D9016D93B8
:101860007C930AC00E5F1F4FC301800F911FF901C7
:1018700091838083EB2DFA2FE114F10431F0D7012D
:101880001396FC93EE93129744C0F093FE01E093FD
:10189000FD013FC08D919C9111974817590708F49D
:1018A000AC017D0112960D90BC91A02DB3CF80911B
:1018B000FB019091FC0188159905E1F44617570743
:1018C000C8F48091000190910101009741F48DB717
:1018D0009EB74091040150910501841B950BE817B8
:1018E000F907C8F4F093FC01E093FB01F90171835F
:1018F00060830FC0CB010E94650F7C01009759F0F7
:10190000A801BE010E94970CCE010E94FA0FC701E8
:1019100004C0CE0102C080E090E0CDB7DEB7EEE0BB
:101920000C94651181E090E0F8940C947C11FB011B
:10193000DC0102C001900D9241505040D8F708954B
:10194000FB01DC0101900D920020E1F70895AEE06B
:10195000B0E0EDEAFCE00C9453110D891E8986E09D
:101960008C831A8309838FEF9FE79E838D83AE015B
:10197000475E5F4F6F89788DCE0101960E94770D8B
:101980002F813885F801E20FF31F10822E96E4E0D4
:101990000C946F111F93FC0199278827BC01E894D0
:1019A00011911032E9F3193010F01E30C8F31B32D8
:1019B00051F01D3249F4689406C00E94F10C610F89
:1019C000711D811D911D119110531A30B0F33EF419
:1019D00090958095709561957F4F8F4F9F4F1F9188
:1019E0000895592F482F372F262F660F771F881FEE
:1019F000991F660F771F881F991F620F731F841F1F
:101A0000951F660F771F881F991F08950F931F93C7
:101A1000CF93DF93009731F46115710519F480E0DD
:101A200090E03AC08B01EC016EE070E081E090E064
:101A30000E94490FFC01892B91F380E883830115F3
:101A4000110571F01387028781E883838091F50186
:101A50009091F601892B21F4F093F601E093F501C2
:101A60002097C9F0D187C08783818260838380916A
:101A7000F7019091F801892B71F4F093F801E0934C
:101A8000F7018091F9019091FA01892B21F4F093EB
:101A9000FA01E093F901CF01DF91CF911F910F91EE
:101AA0000895A0E0B0E0E7E5FDE00C945311AE012D
:101AB000495F5F4FDA016D917D91AD0105EF11E056
:101AC000F80182819381DC0113962C911397286091
:101AD00013962C930E94770DD8011296ED91FC91EC
:101AE00013972381277F2383E4E00C946F11ACE0EC
:101AF000B0E0EDE7FDE00C9445117C016B018A013B
:101B0000FC0117821682838181FFBDC1CE0101963F
:101B10004C01F7019381F60193FD859193FF81912B
:101B20006F01882309F4ABC1853239F493FD8591A7
:101B300093FF81916F01853229F4B70190E00E94F3
:101B4000AF10E7CF512C312C20E02032A0F48B32A3
:101B500069F030F4803259F0833269F420612CC08E
:101B60008D3239F0803339F4216026C02260246040
:101B700023C0286021C027FD27C030ED380F3A3040
:101B800078F426FF06C0FAE05F9E300D1124532E34
:101B900013C08AE0389E300D1124332E20620CC011
:101BA0008E3221F426FD6BC1206406C08C3611F400
:101BB000206802C0883641F4F60193FD859193FFB9
:101BC00081916F018111C1CF982F9F7D95549330E2
:101BD00028F40C5F1F4FFFE3F9830DC0833631F00B
:101BE000833771F0833509F05BC022C0F801808132
:101BF00089830E5F1F4F44244394512C540115C018
:101C00003801F2E06F0E711CF801A080B18026FF50
:101C100003C0652D70E002C06FEF7FEFC5012C8718
:101C20000E94A4102C0183012C852F77222E17C02F
:101C30003801F2E06F0E711CF801A080B18026FF20
:101C400003C0652D70E002C06FEF7FEFC5012C87E8
:101C50000E9492102C012C852068222E830123FCE7
:101C60001BC0832D90E048165906B0F4B70180E2FE
:101C700090E00E94AF103A94F4CFF50127FC8591D3
:101C800027FE81915F01B70190E00E94AF103110F3
:101C90003A94F1E04F1A51084114510471F7E5C02C
:101CA000843611F0893639F5F80127FF07C06081C5
:101CB0007181828193810C5F1F4F08C060817181A7
:101CC000072E000C880B990B0E5F1F4F2F76722E7C
:101CD00097FF09C090958095709561957F4F8F4FC4
:101CE0009F4F2068722E2AE030E0A4010E94E71086
:101CF000A82EA81844C0853729F42F7EB22E2AE0DA
:101D000030E025C0F22FF97FBF2E8F36C1F018F4D6
:101D1000883579F0B4C0803719F0883721F0AFC02A
:101D20002F2F2061B22EB4FE0DC08B2D8460B82EF3
:101D300009C024FF0AC09F2F9660B92E06C028E074
:101D400030E005C020E130E002C020E132E0F801DF
:101D5000B7FE07C060817181828193810C5F1F4F44
:101D600006C06081718180E090E00E5F1F4FA4018A
:101D70000E94E710A82EA818FB2DFF777F2E76FE75
:101D80000BC0372D3E7FA51450F474FE0AC072FCC0
:101D900008C0372D3E7E05C0BA2C372D03C0BA2CA3
:101DA00001C0B52C34FF0DC0FE01EA0DF11D80818C
:101DB000803311F4397E09C032FF06C0B394B39466
:101DC00004C0832F867809F0B39433FD13C030FF2D
:101DD00006C05A2CB31418F4530C5B18B32CB3146C
:101DE00068F4B70180E290E03C870E94AF10B394A2
:101DF0003C85F5CFB31410F43B1801C0312C34FFEF
:101E000012C0B70180E390E03C870E94AF103C8590
:101E100032FF17C031FD03C088E790E002C088E5BB
:101E200090E0B7010CC0832F867859F031FF02C0D3
:101E30008BE201C080E237FD8DE2B70190E00E94A5
:101E4000AF10A51438F4B70180E390E00E94AF1002
:101E50005A94F7CFAA94F401EA0DF11D8081B701DD
:101E600090E00E94AF10A110F5CF332009F451CEBD
:101E7000B70180E290E00E94AF103A94F6CFF701EC
:101E80008681978102C08FEF9FEF2C96E2E10C9440
:101E900061110F931F93CF93DF93869F8001879FDC
:101EA000100D969F100D1124C8010E94650FEC01C2
:101EB000009729F0A80160E070E00E949D10CE011B
:101EC000DF91CF911F910F910895CF93DF938230CF
:101ED000910510F482E090E0E091FD01F091FE01A7
:101EE00020E030E0C0E0D0E0309711F14081518136
:101EF00048175907C0F04817590761F48281938148
:101F0000209719F09B838A832BC09093FE018093C6
:101F1000FD0126C02115310519F04217530718F4A9
:101F20009A01BE01DF01EF010280F381E02DDCCFD9
:101F30002115310509F1281B390B2430310590F4A6
:101F400012968D919C9113976115710521F0FB01FB
:101F50009383828304C09093FE018093FD01FD0171
:101F6000329644C0FD01E20FF31F819391932250FA
:101F700031092D933C933AC02091FB013091FC0133
:101F8000232B41F420910201309103013093FC0195
:101F90002093FB01209100013091010121153105B1
:101FA00041F42DB73EB74091040150910501241B27
:101FB000350BE091FB01F091FC01E217F307A0F46F
:101FC0002E1B3F0B2817390778F0AC014E5F5F4F8F
:101FD0002417350748F04E0F5F1F5093FC014093C4
:101FE000FB018193919302C0E0E0F0E0CF01DF912B
:101FF000CF9108950F931F93CF93DF93009709F428
:102000008CC0FC013297138212820091FD01109165
:10201000FE010115110581F420813181820F931F8A
:102020002091FB013091FC012817390779F5F093D5
:10203000FC01E093FB0171C0D80140E050E0AE1715
:10204000BF0750F412962D913C911397AD012115C5
:10205000310509F1D901F3CF9D01DA0133832283E0
:1020600060817181860F971F8217930769F4EC01D5
:1020700028813981260F371F2E5F3F4F3183208300
:102080008A819B8193838283452B29F4F093FE01FF
:10209000E093FD0142C01396FC93EE931297ED017D
:1020A000499159919E01240F351FE217F30771F4EE
:1020B00080819181840F951F029611969C938E9337
:1020C0008281938113969C938E931297E0E0F0E0C7
:1020D000D80112968D919C911397009719F0F801F1
:1020E0008C01F6CF8D919C9198012E5F3F4F820F0E
:1020F000931F2091FB013091FC012817390769F4E7
:10210000309729F41092FE011092FD0102C0138253
:1021100012821093FC010093FB01DF91CF911F917C
:102120000F910895FC010590615070400110D8F79F
:10213000809590958E0F9F1F0895DC0101C06D93CF
:1021400041505040E0F70895FC016150704001900B
:102150000110D8F7809590958E0F9F1F08950F93CB
:102160001F93CF93DF93FB01238121FD03C08FEFEA
:102170009FEF28C022FF16C04681578124813581F8
:102180004217530744F4A081B1819D012F5F3F4F57
:10219000318320838C93268137812F5F3F4F378394
:1021A000268310C0EB01092F182F0084F185E02D44
:1021B0000995892BE1F68E819F8101969F838E83FD
:1021C000812F902FDF91CF911F910F910895FA01E8
:1021D000AA27283051F1203181F1E8946F936E7F66
:1021E0006E5F7F4F8F4F9F4FAF4FB1E03ED0B4E057
:1021F0003CD0670F781F891F9A1FA11D680F791F98
:102200008A1F911DA11D6A0F711D811D911DA11DA8
:1022100020D009F468943F912AE0269F11243019B8
:10222000305D3193DEF6CF010895462F4770405D53
:102230004193B3E00FD0C9F7F6CF462F4F70405D02
:102240004A3318F0495D31FD4052419302D0A9F75D
:10225000EACFB4E0A6959795879577956795BA9557
:10226000C9F700976105710508959B01AC010A2E1D
:1022700006945795479537952795BA95C9F7620FF4
:10228000731F841F951FA01D08952F923F924F9298
:102290005F926F927F928F929F92AF92BF92CF92F6
:1022A000DF92EF92FF920F931F93CF93DF93CDB7FF
:1022B000DEB7CA1BDB0B0FB6F894DEBF0FBECDBF77
:1022C00009942A88398848885F846E847D848C8448
:1022D0009B84AA84B984C884DF80EE80FD800C8151
:1022E0001B81AA81B981CE0FD11D0FB6F894DEBF34
:1022F0000FBECDBFED01089511E0CAE2D1E004C0E8
:10230000FE010E94C20B2196CB32D107C9F7F89487
:02231000FFCFFD
:102312000000FF01800000000000D9015501A20168
:102322008001940120026375727461696E310073D9
:0623320065742573000034
:107800000C94343C0C94513C0C94513C0C94513CE1
:107810000C94513C0C94513C0C94513C0C94513CB4
:107820000C94513C0C94513C0C94513C0C94513CA4
:107830000C94513C0C94513C0C94513C0C94513C94
:107840000C94513C0C94513C0C94513C0C94513C84
:107850000C94513C0C94513C0C94513C0C94513C74
:107860000C94513C0C94513C11241FBECFEFD8E036
:10787000DEBFCDBF11E0A0E0B1E0ECE9FFE702C060
:1078800005900D92A230B107D9F712E0A2E0B1E065
:1078900001C01D92AD30B107E1F70E942D3D0C945F
:1078A000CC3F0C94003C982F959595959595959582
:1078B000905D8F708A307CF0282F295A8091C0000B
:1078C00085FFFCCF9093C6008091C00085FFFCCF60
:1078D0002093C6000895282F205DF0CF982F809127
:1078E000C00085FFFCCF9093C6000895EF92FF92F1
:1078F0000F931F93EE24FF2487018091C00087FD22
:1079000017C00894E11CF11C011D111D81E4E8164B
:1079100082E4F8068FE0080780E0180770F3E09132
:107920000401F091050109958091C00087FFE9CF1E
:107930008091C6001F910F91FF90EF9008950E94D3
:10794000763C982F8091C00085FFFCCF9093C600B5
:1079500091362CF490330CF09053892F089597555D
:10796000892F08951F930E949F3C182F0E949F3CCF
:107970001295107F810F1F9108951F93182F882350
:1079800021F00E94763C1150E1F71F9108951F935A
:10799000182F0E94763C803249F0809103018F5F5E
:1079A000809303018530C1F01F9108958091C0003C
:1079B00085FFFCCF84E18093C6008091C00085FFE5
:1079C000FCCF1093C6008091C00085FFFCCF80E102
:1079D0008093C6001F910895E0910401F091050184
:1079E00009951F9108950E94763C803241F0809164
:1079F00003018F5F80930301853081F008958091AA
:107A0000C00085FFFCCF84E18093C6008091C00058
:107A100085FFFCCF80E18093C6000895E0910401CA
:107A2000F09105010995089540E951E08823A1F0FE
:107A30002D9A28EE33E0FA013197F1F721503040CA
:107A4000D1F72D9828EE33E0FA013197F1F7215064
:107A50003040D1F7815061F708953F924F925F9285
:107A60006F927F928F929F92AF92BF92CF92DF924E
:107A7000EF92FF920F931F93CF93DF93000080E16B
:107A80008093C4001092C50088E18093C10086E015
:107A90008093C2005098589A259A81E00E94143D24
:107AA00024E1F22E9EE1E92E85E9D82E0FE0C02ECA
:107AB00010E1B12EAA24A394B1E49B2EA6E58A2E50
:107AC000F2E57F2EE0E26E2E79E4572E63E5462E36
:107AD00050E5352E0E94763C8033B1F18133B9F107
:107AE000803409F46FC0813409F476C0823409F41B
:107AF00085C0853409F488C0803531F1823521F1A3
:107B0000813511F1853509F485C0863509F48DC0BC
:107B1000843609F496C0843709F403C1853709F423
:107B200072C1863709F466C0809103018F5F80932C
:107B30000301853079F6E0910401F0910501099582
:107B40000E94763C803351F60E94F33CC3CF0E94E2
:107B5000763C803249F78091C00085FFFCCFF092DF
:107B6000C6008091C00085FFFCCF9092C600809136
:107B7000C00085FFFCCF8092C6008091C00085FFC9
:107B8000FCCF7092C6008091C00085FFFCCF609250
:107B9000C6008091C00085FFFCCF5092C600809146
:107BA000C00085FFFCCF4092C6008091C00085FFD9
:107BB000FCCF3092C6008091C00085FFFCCFB09210
:107BC000C60088CF0E94763C863808F4BDCF0E945C
:107BD000763C0E94F33C7ECF0E94763C803809F4CC
:107BE0009CC0813809F40BC1823809F43CC1883942
:107BF00009F48FC080E00E94C73C6CCF84E10E94F2
:107C0000BD3C0E94F33C66CF85E00E94BD3C0E94D3
:107C1000F33C60CF0E94763C809306010E94763C44
:107C2000809307010E94F33C55CF0E94763C80333D
:107C300009F41DC183E00E94BD3C80E00E94C73C66
:107C400049CF0E94763C809309020E94763C809343
:107C5000080280910C028E7F80930C020E94763C79
:107C6000853409F415C18091080290910902892B8D
:107C700089F000E010E00E94763CF801E85FFE4FDA
:107C800080830F5F1F4F80910802909109020817AF
:107C9000190788F30E94763C803209F045CF809125
:107CA0000C0280FF01C16091060170910701660F0F
:107CB000771F7093070160930601A0910802B091AD
:107CC00009021097C9F0E8E0F1E09B01AD014E0F09
:107CD0005F1FF999FECF32BD21BD819180BDFA9A17
:107CE000F99A2F5F3F4FE417F50799F76A0F7B1F4B
:107CF00070930701609306018091C00085FFFCCF5F
:107D0000F092C6008091C00085FFFCCFB092C60003
:107D1000E1CE83E00E94C73CDDCE82E00E94C73CFA
:107D2000D9CE0E94763C809309020E94763C8093D3
:107D300008028091060190910701880F991F909386
:107D40000701809306010E94763C853409F4A6C0A1
:107D500080910C028E7F80930C020E94763C8032D0
:107D600009F0B8CE8091C00085FFFCCFF092C6002C
:107D7000609108027091090261157105B9F140E046
:107D800050E080910C02A82FA170B82FB27011C0E2
:107D9000BB2309F45CC0E0910601F0910701319624
:107DA000F0930701E09306014F5F5F4F46175707B7
:107DB000E8F4AA2369F3F999FECF209106013091E6
:107DC000070132BD21BDF89A90B58091C00085FFB2
:107DD000FCCF9093C6002F5F3F4F30930701209355
:107DE00006014F5F5F4F4617570718F38091C00099
:107DF00085FDE5CE8091C00085FFF8CFE0CE81E023
:107E00000E94C73C67CE0E94763C803209F08CCE3F
:107E10008091C00085FFFCCFF092C6008091C00029
:107E200085FFFCCFE092C6008091C00085FFFCCFAB
:107E3000D092C6008091C00085FFFCCFC092C600E2
:107E40008091C00085FFFCCFB092C60043CEE09188
:107E50000601F091070194918091C00085FFFCCF4D
:107E60009093C6009CCF80E10E94C73C33CE0E9415
:107E7000763C0E94763C182F0E94763C112309F430
:107E800083C0113009F484C08FE00E94C73C22CE29
:107E900080910C02816080930C02E5CE80910C02EF
:107EA000816080930C0259CF809107018823880F4D
:107EB000880B8A2180930B02809106019091070123
:107EC000880F991F90930701809306018091080203
:107ED00080FF09C080910802909109020196909359
:107EE000090280930802F894F999FECF1127E091D6
:107EF0000601F0910701C8E0D1E08091080290915D
:107F00000902103091F40091570001700130D9F34B
:107F100003E000935700E89500915700017001308D
:107F2000D9F301E100935700E89509901990009169
:107F3000570001700130D9F301E000935700E89534
:107F40001395103498F011270091570001700130FB
:107F5000D9F305E000935700E895009157000170B0
:107F60000130D9F301E100935700E895329602976A
:107F700009F0C7CF103011F00296E5CF112480919F
:107F8000C00085FFB9CEBCCE8EE10E94C73CA2CD19
:0C7F900085E90E94C73C9ECDF894FFCF0D
:027F9C00800063
:040000030000780081
:00000001FF
